{
  "contractName": "Child",
  "abi": [
    {
      "inputs": [
        {
          "internalType": "string",
          "name": "name",
          "type": "string"
        },
        {
          "internalType": "string",
          "name": "abb",
          "type": "string"
        },
        {
          "internalType": "address",
          "name": "newOwner",
          "type": "address"
        }
      ],
      "stateMutability": "payable",
      "type": "constructor"
    },
    {
      "anonymous": false,
      "inputs": [
        {
          "indexed": true,
          "internalType": "address",
          "name": "owner",
          "type": "address"
        },
        {
          "indexed": true,
          "internalType": "address",
          "name": "approved",
          "type": "address"
        },
        {
          "indexed": true,
          "internalType": "uint256",
          "name": "tokenId",
          "type": "uint256"
        }
      ],
      "name": "Approval",
      "type": "event"
    },
    {
      "anonymous": false,
      "inputs": [
        {
          "indexed": true,
          "internalType": "address",
          "name": "owner",
          "type": "address"
        },
        {
          "indexed": true,
          "internalType": "address",
          "name": "operator",
          "type": "address"
        },
        {
          "indexed": false,
          "internalType": "bool",
          "name": "approved",
          "type": "bool"
        }
      ],
      "name": "ApprovalForAll",
      "type": "event"
    },
    {
      "anonymous": false,
      "inputs": [
        {
          "indexed": false,
          "internalType": "uint256",
          "name": "batchId",
          "type": "uint256"
        },
        {
          "indexed": false,
          "internalType": "string",
          "name": "_tokenURI",
          "type": "string"
        }
      ],
      "name": "LogBatchURI",
      "type": "event"
    },
    {
      "anonymous": false,
      "inputs": [
        {
          "indexed": false,
          "internalType": "uint256",
          "name": "batchId",
          "type": "uint256"
        },
        {
          "indexed": false,
          "internalType": "string",
          "name": "hashed",
          "type": "string"
        }
      ],
      "name": "LogNewHash",
      "type": "event"
    },
    {
      "anonymous": false,
      "inputs": [
        {
          "indexed": false,
          "internalType": "uint256",
          "name": "tokenId",
          "type": "uint256"
        },
        {
          "indexed": false,
          "internalType": "string",
          "name": "secret",
          "type": "string"
        }
      ],
      "name": "LogNewSecret",
      "type": "event"
    },
    {
      "anonymous": false,
      "inputs": [
        {
          "indexed": false,
          "internalType": "uint256",
          "name": "numberOfNft",
          "type": "uint256"
        },
        {
          "indexed": false,
          "internalType": "uint256",
          "name": "batchId",
          "type": "uint256"
        }
      ],
      "name": "LogNewToB",
      "type": "event"
    },
    {
      "anonymous": false,
      "inputs": [
        {
          "indexed": false,
          "internalType": "uint256",
          "name": "tokenId",
          "type": "uint256"
        },
        {
          "indexed": false,
          "internalType": "uint256",
          "name": "price",
          "type": "uint256"
        }
      ],
      "name": "LogPriceSet",
      "type": "event"
    },
    {
      "anonymous": false,
      "inputs": [
        {
          "indexed": false,
          "internalType": "uint256",
          "name": "tokenId",
          "type": "uint256"
        },
        {
          "indexed": false,
          "internalType": "uint256",
          "name": "price",
          "type": "uint256"
        },
        {
          "indexed": false,
          "internalType": "address",
          "name": "buyer",
          "type": "address"
        }
      ],
      "name": "LogSold",
      "type": "event"
    },
    {
      "anonymous": false,
      "inputs": [
        {
          "indexed": true,
          "internalType": "address",
          "name": "previousOwner",
          "type": "address"
        },
        {
          "indexed": true,
          "internalType": "address",
          "name": "newOwner",
          "type": "address"
        }
      ],
      "name": "OwnershipTransferred",
      "type": "event"
    },
    {
      "anonymous": false,
      "inputs": [
        {
          "indexed": true,
          "internalType": "address",
          "name": "from",
          "type": "address"
        },
        {
          "indexed": true,
          "internalType": "address",
          "name": "to",
          "type": "address"
        },
        {
          "indexed": true,
          "internalType": "uint256",
          "name": "tokenId",
          "type": "uint256"
        }
      ],
      "name": "Transfer",
      "type": "event"
    },
    {
      "inputs": [
        {
          "internalType": "uint256",
          "name": "",
          "type": "uint256"
        }
      ],
      "name": "_encrSecret",
      "outputs": [
        {
          "internalType": "string",
          "name": "",
          "type": "string"
        }
      ],
      "stateMutability": "view",
      "type": "function"
    },
    {
      "inputs": [
        {
          "internalType": "uint256",
          "name": "",
          "type": "uint256"
        }
      ],
      "name": "_secretHash",
      "outputs": [
        {
          "internalType": "string",
          "name": "",
          "type": "string"
        }
      ],
      "stateMutability": "view",
      "type": "function"
    },
    {
      "inputs": [
        {
          "internalType": "address",
          "name": "to",
          "type": "address"
        },
        {
          "internalType": "uint256",
          "name": "tokenId",
          "type": "uint256"
        }
      ],
      "name": "approve",
      "outputs": [],
      "stateMutability": "nonpayable",
      "type": "function"
    },
    {
      "inputs": [
        {
          "internalType": "address",
          "name": "owner",
          "type": "address"
        }
      ],
      "name": "balanceOf",
      "outputs": [
        {
          "internalType": "uint256",
          "name": "",
          "type": "uint256"
        }
      ],
      "stateMutability": "view",
      "type": "function"
    },
    {
      "inputs": [],
      "name": "baseURI",
      "outputs": [
        {
          "internalType": "string",
          "name": "",
          "type": "string"
        }
      ],
      "stateMutability": "view",
      "type": "function"
    },
    {
      "inputs": [
        {
          "internalType": "uint256",
          "name": "",
          "type": "uint256"
        }
      ],
      "name": "batchMax",
      "outputs": [
        {
          "internalType": "uint256",
          "name": "",
          "type": "uint256"
        }
      ],
      "stateMutability": "view",
      "type": "function"
    },
    {
      "inputs": [
        {
          "internalType": "uint256",
          "name": "batchId",
          "type": "uint256"
        }
      ],
      "name": "batchSize",
      "outputs": [
        {
          "internalType": "uint256",
          "name": "",
          "type": "uint256"
        }
      ],
      "stateMutability": "view",
      "type": "function"
    },
    {
      "inputs": [
        {
          "internalType": "uint256",
          "name": "",
          "type": "uint256"
        }
      ],
      "name": "forSale",
      "outputs": [
        {
          "internalType": "bool",
          "name": "",
          "type": "bool"
        }
      ],
      "stateMutability": "view",
      "type": "function"
    },
    {
      "inputs": [
        {
          "internalType": "uint256",
          "name": "tokenId",
          "type": "uint256"
        }
      ],
      "name": "getApproved",
      "outputs": [
        {
          "internalType": "address",
          "name": "",
          "type": "address"
        }
      ],
      "stateMutability": "view",
      "type": "function"
    },
    {
      "inputs": [
        {
          "internalType": "uint256",
          "name": "tokenId",
          "type": "uint256"
        }
      ],
      "name": "getPrice",
      "outputs": [
        {
          "internalType": "uint256",
          "name": "",
          "type": "uint256"
        }
      ],
      "stateMutability": "view",
      "type": "function"
    },
    {
      "inputs": [
        {
          "internalType": "address",
          "name": "owner",
          "type": "address"
        },
        {
          "internalType": "address",
          "name": "operator",
          "type": "address"
        }
      ],
      "name": "isApprovedForAll",
      "outputs": [
        {
          "internalType": "bool",
          "name": "",
          "type": "bool"
        }
      ],
      "stateMutability": "view",
      "type": "function"
    },
    {
      "inputs": [],
      "name": "name",
      "outputs": [
        {
          "internalType": "string",
          "name": "",
          "type": "string"
        }
      ],
      "stateMutability": "view",
      "type": "function"
    },
    {
      "inputs": [
        {
          "internalType": "uint256",
          "name": "",
          "type": "uint256"
        }
      ],
      "name": "origPrice",
      "outputs": [
        {
          "internalType": "uint256",
          "name": "",
          "type": "uint256"
        }
      ],
      "stateMutability": "view",
      "type": "function"
    },
    {
      "inputs": [],
      "name": "owner",
      "outputs": [
        {
          "internalType": "address",
          "name": "",
          "type": "address"
        }
      ],
      "stateMutability": "view",
      "type": "function"
    },
    {
      "inputs": [
        {
          "internalType": "uint256",
          "name": "tokenId",
          "type": "uint256"
        }
      ],
      "name": "ownerOf",
      "outputs": [
        {
          "internalType": "address",
          "name": "",
          "type": "address"
        }
      ],
      "stateMutability": "view",
      "type": "function"
    },
    {
      "inputs": [],
      "name": "renounceOwnership",
      "outputs": [],
      "stateMutability": "nonpayable",
      "type": "function"
    },
    {
      "inputs": [
        {
          "internalType": "address",
          "name": "from",
          "type": "address"
        },
        {
          "internalType": "address",
          "name": "to",
          "type": "address"
        },
        {
          "internalType": "uint256",
          "name": "tokenId",
          "type": "uint256"
        }
      ],
      "name": "safeTransferFrom",
      "outputs": [],
      "stateMutability": "nonpayable",
      "type": "function"
    },
    {
      "inputs": [
        {
          "internalType": "address",
          "name": "from",
          "type": "address"
        },
        {
          "internalType": "address",
          "name": "to",
          "type": "address"
        },
        {
          "internalType": "uint256",
          "name": "tokenId",
          "type": "uint256"
        },
        {
          "internalType": "bytes",
          "name": "_data",
          "type": "bytes"
        }
      ],
      "name": "safeTransferFrom",
      "outputs": [],
      "stateMutability": "nonpayable",
      "type": "function"
    },
    {
      "inputs": [
        {
          "internalType": "address",
          "name": "operator",
          "type": "address"
        },
        {
          "internalType": "bool",
          "name": "approved",
          "type": "bool"
        }
      ],
      "name": "setApprovalForAll",
      "outputs": [],
      "stateMutability": "nonpayable",
      "type": "function"
    },
    {
      "inputs": [
        {
          "internalType": "bytes4",
          "name": "interfaceId",
          "type": "bytes4"
        }
      ],
      "name": "supportsInterface",
      "outputs": [
        {
          "internalType": "bool",
          "name": "",
          "type": "bool"
        }
      ],
      "stateMutability": "view",
      "type": "function"
    },
    {
      "inputs": [],
      "name": "symbol",
      "outputs": [
        {
          "internalType": "string",
          "name": "",
          "type": "string"
        }
      ],
      "stateMutability": "view",
      "type": "function"
    },
    {
      "inputs": [
        {
          "internalType": "uint256",
          "name": "index",
          "type": "uint256"
        }
      ],
      "name": "tokenByIndex",
      "outputs": [
        {
          "internalType": "uint256",
          "name": "",
          "type": "uint256"
        }
      ],
      "stateMutability": "view",
      "type": "function"
    },
    {
      "inputs": [
        {
          "internalType": "address",
          "name": "owner",
          "type": "address"
        },
        {
          "internalType": "uint256",
          "name": "index",
          "type": "uint256"
        }
      ],
      "name": "tokenOfOwnerByIndex",
      "outputs": [
        {
          "internalType": "uint256",
          "name": "",
          "type": "uint256"
        }
      ],
      "stateMutability": "view",
      "type": "function"
    },
    {
      "inputs": [
        {
          "internalType": "uint256",
          "name": "tokenId",
          "type": "uint256"
        }
      ],
      "name": "tokenURI",
      "outputs": [
        {
          "internalType": "string",
          "name": "",
          "type": "string"
        }
      ],
      "stateMutability": "view",
      "type": "function"
    },
    {
      "inputs": [],
      "name": "totalSupply",
      "outputs": [
        {
          "internalType": "uint256",
          "name": "",
          "type": "uint256"
        }
      ],
      "stateMutability": "view",
      "type": "function"
    },
    {
      "inputs": [
        {
          "internalType": "address",
          "name": "from",
          "type": "address"
        },
        {
          "internalType": "address",
          "name": "to",
          "type": "address"
        },
        {
          "internalType": "uint256",
          "name": "tokenId",
          "type": "uint256"
        }
      ],
      "name": "transferFrom",
      "outputs": [],
      "stateMutability": "nonpayable",
      "type": "function"
    },
    {
      "inputs": [
        {
          "internalType": "address",
          "name": "newOwner",
          "type": "address"
        }
      ],
      "name": "transferOwnership",
      "outputs": [],
      "stateMutability": "nonpayable",
      "type": "function"
    },
    {
      "inputs": [
        {
          "internalType": "uint256",
          "name": "tokenId",
          "type": "uint256"
        }
      ],
      "name": "viewEncSecret",
      "outputs": [
        {
          "internalType": "string",
          "name": "",
          "type": "string"
        }
      ],
      "stateMutability": "view",
      "type": "function"
    },
    {
      "inputs": [
        {
          "internalType": "uint256",
          "name": "batchId",
          "type": "uint256"
        }
      ],
      "name": "viewSecretHash",
      "outputs": [
        {
          "internalType": "string",
          "name": "",
          "type": "string"
        }
      ],
      "stateMutability": "view",
      "type": "function"
    },
    {
      "inputs": [
        {
          "internalType": "uint256",
          "name": "numberOfNft",
          "type": "uint256"
        },
        {
          "internalType": "uint256",
          "name": "batchId",
          "type": "uint256"
        }
      ],
      "name": "NewToBatch",
      "outputs": [],
      "stateMutability": "nonpayable",
      "type": "function"
    },
    {
      "inputs": [
        {
          "internalType": "uint256",
          "name": "batchId",
          "type": "uint256"
        },
        {
          "internalType": "string",
          "name": "_tokenURI",
          "type": "string"
        }
      ],
      "name": "setBatchTokenURI",
      "outputs": [],
      "stateMutability": "nonpayable",
      "type": "function"
    },
    {
      "inputs": [
        {
          "internalType": "uint256",
          "name": "numberOfNft",
          "type": "uint256"
        },
        {
          "internalType": "string",
          "name": "_tokenURI",
          "type": "string"
        }
      ],
      "name": "newBatchWithURI",
      "outputs": [],
      "stateMutability": "nonpayable",
      "type": "function"
    },
    {
      "inputs": [
        {
          "internalType": "uint256",
          "name": "tokenId",
          "type": "uint256"
        },
        {
          "internalType": "string",
          "name": "_tokenURI",
          "type": "string"
        }
      ],
      "name": "setTokenURI",
      "outputs": [],
      "stateMutability": "nonpayable",
      "type": "function"
    },
    {
      "inputs": [
        {
          "internalType": "uint256",
          "name": "tokenId",
          "type": "uint256"
        },
        {
          "internalType": "string",
          "name": "secret",
          "type": "string"
        }
      ],
      "name": "setEncSecret",
      "outputs": [],
      "stateMutability": "nonpayable",
      "type": "function"
    },
    {
      "inputs": [
        {
          "internalType": "uint256",
          "name": "batchId",
          "type": "uint256"
        },
        {
          "internalType": "string",
          "name": "hashed",
          "type": "string"
        }
      ],
      "name": "setSecretHash",
      "outputs": [],
      "stateMutability": "nonpayable",
      "type": "function"
    },
    {
      "inputs": [
        {
          "internalType": "uint256",
          "name": "tokenId",
          "type": "uint256"
        },
        {
          "internalType": "uint256",
          "name": "price",
          "type": "uint256"
        }
      ],
      "name": "setPrice",
      "outputs": [],
      "stateMutability": "nonpayable",
      "type": "function"
    },
    {
      "inputs": [
        {
          "internalType": "uint256",
          "name": "batchId",
          "type": "uint256"
        },
        {
          "internalType": "uint256",
          "name": "price",
          "type": "uint256"
        }
      ],
      "name": "setBatchPrice",
      "outputs": [],
      "stateMutability": "nonpayable",
      "type": "function"
    },
    {
      "inputs": [
        {
          "internalType": "uint256",
          "name": "tokenId",
          "type": "uint256"
        }
      ],
      "name": "purchase",
      "outputs": [],
      "stateMutability": "payable",
      "type": "function"
    }
  ],
  "bytecode": "0x60806040526001600a60006101000a81548160ff02191690831515021790555060006011556000601255604051620054f4380380620054f4833981810160405260608110156200004e57600080fd5b81019080805160405193929190846401000000008211156200006f57600080fd5b838201915060208201858111156200008657600080fd5b8251866001820283011164010000000082111715620000a457600080fd5b8083526020830192505050908051906020019080838360005b83811015620000da578082015181840152602081019050620000bd565b50505050905090810190601f168015620001085780820380516001836020036101000a031916815260200191505b50604052602001805160405193929190846401000000008211156200012c57600080fd5b838201915060208201858111156200014357600080fd5b82518660018202830111640100000000821117156200016157600080fd5b8083526020830192505050908051906020019080838360005b83811015620001975780820151818401526020810190506200017a565b50505050905090810190601f168015620001c55780820380516001836020036101000a031916815260200191505b50604052602001805190602001909291905050508282620001f36301ffc9a760e01b6200033a60201b60201c565b81600690805190602001906200020b92919062000666565b5080600790805190602001906200022492919062000666565b506200023d6380ac58cd60e01b6200033a60201b60201c565b62000255635b5e139f60e01b6200033a60201b60201c565b6200026d63780e9d6360e01b6200033a60201b60201c565b50506000620002816200044360201b60201c565b905080600a60016101000a81548173ffffffffffffffffffffffffffffffffffffffff021916908373ffffffffffffffffffffffffffffffffffffffff1602179055508073ffffffffffffffffffffffffffffffffffffffff16600073ffffffffffffffffffffffffffffffffffffffff167f8be0079c531659141344cd1fd0a4f28419497f9722a3daafe3b4186f6b6457e060405160405180910390a35062000331816200044b60201b60201c565b50505062000715565b63ffffffff60e01b817bffffffffffffffffffffffffffffffffffffffffffffffffffffffff19161415620003d7576040517f08c379a000000000000000000000000000000000000000000000000000000000815260040180806020018281038252601c8152602001807f4552433136353a20696e76616c696420696e746572666163652069640000000081525060200191505060405180910390fd5b6001600080837bffffffffffffffffffffffffffffffffffffffffffffffffffffffff19167bffffffffffffffffffffffffffffffffffffffffffffffffffffffff1916815260200190815260200160002060006101000a81548160ff02191690831515021790555050565b600033905090565b6200045b6200044360201b60201c565b73ffffffffffffffffffffffffffffffffffffffff16600a60019054906101000a900473ffffffffffffffffffffffffffffffffffffffff1673ffffffffffffffffffffffffffffffffffffffff16146200051e576040517f08c379a00000000000000000000000000000000000000000000000000000000081526004018080602001828103825260208152602001807f4f776e61626c653a2063616c6c6572206973206e6f7420746865206f776e657281525060200191505060405180910390fd5b600073ffffffffffffffffffffffffffffffffffffffff168173ffffffffffffffffffffffffffffffffffffffff161415620005a6576040517f08c379a0000000000000000000000000000000000000000000000000000000008152600401808060200182810382526026815260200180620054ce6026913960400191505060405180910390fd5b8073ffffffffffffffffffffffffffffffffffffffff16600a60019054906101000a900473ffffffffffffffffffffffffffffffffffffffff1673ffffffffffffffffffffffffffffffffffffffff167f8be0079c531659141344cd1fd0a4f28419497f9722a3daafe3b4186f6b6457e060405160405180910390a380600a60016101000a81548173ffffffffffffffffffffffffffffffffffffffff021916908373ffffffffffffffffffffffffffffffffffffffff16021790555050565b828054600181600116156101000203166002900490600052602060002090601f016020900481019282601f10620006a957805160ff1916838001178555620006da565b82800160010185558215620006da579182015b82811115620006d9578251825591602001919060010190620006bc565b5b509050620006e99190620006ed565b5090565b6200071291905b808211156200070e576000816000905550600101620006f4565b5090565b90565b614da980620007256000396000f3fe6080604052600436106102255760003560e01c806377a263d311610123578063b6fdfcde116100ab578063e75722301161006f578063e757223014611326578063e985e9c514611375578063efef39a1146113fe578063f2fde38b1461142c578063f7d975771461147d57610225565b8063b6fdfcde14611022578063b88d4fde146110d6578063b93afa12146111e8578063c87b56dd1461122d578063dcd19eac146112e157610225565b806392d28404116100f257806392d2840414610de35780639461cbfc14610e9757806395d89b4114610ee6578063a22cb46514610f76578063a463645614610fd357610225565b806377a263d314610bd5578063867ad03314610c245780638a7a018d14610cd85780638da5cb5b14610d8c57610225565b80632f745c59116101b15780636352211e116101755780636352211e1461097c5780636c0360eb146109f757806370a0823114610a87578063715018a614610aec57806371cefbe914610b0357610225565b80632f745c591461069f578063409616c91461070e57806342842e0e146107e05780634f6ccce71461085b5780635abae699146108aa57610225565b8063162094c4116101f8578063162094c41461040257806318160ddd146104d45780631da025f8146104ff57806323b872dd146105d15780632831f2f41461064c57610225565b806301ffc9a71461022a57806306fdde031461029c578063081812fc1461032c578063095ea7b3146103a7575b600080fd5b34801561023657600080fd5b506102826004803603602081101561024d57600080fd5b8101908080357bffffffffffffffffffffffffffffffffffffffffffffffffffffffff191690602001909291905050506114c2565b604051808215151515815260200191505060405180910390f35b3480156102a857600080fd5b506102b1611529565b6040518080602001828103825283818151815260200191508051906020019080838360005b838110156102f15780820151818401526020810190506102d6565b50505050905090810190601f16801561031e5780820380516001836020036101000a031916815260200191505b509250505060405180910390f35b34801561033857600080fd5b506103656004803603602081101561034f57600080fd5b81019080803590602001909291905050506115cb565b604051808273ffffffffffffffffffffffffffffffffffffffff1673ffffffffffffffffffffffffffffffffffffffff16815260200191505060405180910390f35b3480156103b357600080fd5b50610400600480360360408110156103ca57600080fd5b81019080803573ffffffffffffffffffffffffffffffffffffffff16906020019092919080359060200190929190505050611685565b005b34801561040e57600080fd5b506104d26004803603604081101561042557600080fd5b81019080803590602001909291908035906020019064010000000081111561044c57600080fd5b82018360208201111561045e57600080fd5b8035906020019184600183028401116401000000008311171561048057600080fd5b91908080601f016020809104026020016040519081016040528093929190818152602001838380828437600081840152601f19601f8201169050808301925050505050505091929192905050506117e9565b005b3480156104e057600080fd5b506104e961193e565b6040518082815260200191505060405180910390f35b34801561050b57600080fd5b506105cf6004803603604081101561052257600080fd5b81019080803590602001909291908035906020019064010000000081111561054957600080fd5b82018360208201111561055b57600080fd5b8035906020019184600183028401116401000000008311171561057d57600080fd5b91908080601f016020809104026020016040519081016040528093929190818152602001838380828437600081840152601f19601f82011690508083019250505050505050919291929050505061194f565b005b3480156105dd57600080fd5b5061064a600480360360608110156105f457600080fd5b81019080803573ffffffffffffffffffffffffffffffffffffffff169060200190929190803573ffffffffffffffffffffffffffffffffffffffff16906020019092919080359060200190929190505050611b2d565b005b34801561065857600080fd5b506106856004803603602081101561066f57600080fd5b8101908080359060200190929190505050611bc3565b604051808215151515815260200191505060405180910390f35b3480156106ab57600080fd5b506106f8600480360360408110156106c257600080fd5b81019080803573ffffffffffffffffffffffffffffffffffffffff16906020019092919080359060200190929190505050611be3565b6040518082815260200191505060405180910390f35b34801561071a57600080fd5b506107de6004803603604081101561073157600080fd5b81019080803590602001909291908035906020019064010000000081111561075857600080fd5b82018360208201111561076a57600080fd5b8035906020019184600183028401116401000000008311171561078c57600080fd5b91908080601f016020809104026020016040519081016040528093929190818152602001838380828437600081840152601f19601f820116905080830192505050505050509192919290505050611c3e565b005b3480156107ec57600080fd5b506108596004803603606081101561080357600080fd5b81019080803573ffffffffffffffffffffffffffffffffffffffff169060200190929190803573ffffffffffffffffffffffffffffffffffffffff16906020019092919080359060200190929190505050611df2565b005b34801561086757600080fd5b506108946004803603602081101561087e57600080fd5b8101908080359060200190929190505050611e32565b6040518082815260200191505060405180910390f35b3480156108b657600080fd5b5061097a600480360360408110156108cd57600080fd5b8101908080359060200190929190803590602001906401000000008111156108f457600080fd5b82018360208201111561090657600080fd5b8035906020019184600183028401116401000000008311171561092857600080fd5b91908080601f016020809104026020016040519081016040528093929190818152602001838380828437600081840152601f19601f820116905080830192505050505050509192919290505050611e55565b005b34801561098857600080fd5b506109b56004803603602081101561099f57600080fd5b8101908080359060200190929190505050611f3e565b604051808273ffffffffffffffffffffffffffffffffffffffff1673ffffffffffffffffffffffffffffffffffffffff16815260200191505060405180910390f35b348015610a0357600080fd5b50610a0c611f75565b6040518080602001828103825283818151815260200191508051906020019080838360005b83811015610a4c578082015181840152602081019050610a31565b50505050905090810190601f168015610a795780820380516001836020036101000a031916815260200191505b509250505060405180910390f35b348015610a9357600080fd5b50610ad660048036036020811015610aaa57600080fd5b81019080803573ffffffffffffffffffffffffffffffffffffffff169060200190929190505050612017565b6040518082815260200191505060405180910390f35b348015610af857600080fd5b50610b016120ec565b005b348015610b0f57600080fd5b50610bd360048036036040811015610b2657600080fd5b810190808035906020019092919080359060200190640100000000811115610b4d57600080fd5b820183602082011115610b5f57600080fd5b80359060200191846001830284011164010000000083111715610b8157600080fd5b91908080601f016020809104026020016040519081016040528093929190818152602001838380828437600081840152601f19601f820116905080830192505050505050509192919290505050612277565b005b348015610be157600080fd5b50610c0e60048036036020811015610bf857600080fd5b810190808035906020019092919050505061236d565b6040518082815260200191505060405180910390f35b348015610c3057600080fd5b50610c5d60048036036020811015610c4757600080fd5b8101908080359060200190929190505050612385565b6040518080602001828103825283818151815260200191508051906020019080838360005b83811015610c9d578082015181840152602081019050610c82565b50505050905090810190601f168015610cca5780820380516001836020036101000a031916815260200191505b509250505060405180910390f35b348015610ce457600080fd5b50610d1160048036036020811015610cfb57600080fd5b810190808035906020019092919050505061243a565b6040518080602001828103825283818151815260200191508051906020019080838360005b83811015610d51578082015181840152602081019050610d36565b50505050905090810190601f168015610d7e5780820380516001836020036101000a031916815260200191505b509250505060405180910390f35b348015610d9857600080fd5b50610da16124ef565b604051808273ffffffffffffffffffffffffffffffffffffffff1673ffffffffffffffffffffffffffffffffffffffff16815260200191505060405180910390f35b348015610def57600080fd5b50610e1c60048036036020811015610e0657600080fd5b8101908080359060200190929190505050612519565b6040518080602001828103825283818151815260200191508051906020019080838360005b83811015610e5c578082015181840152602081019050610e41565b50505050905090810190601f168015610e895780820380516001836020036101000a031916815260200191505b509250505060405180910390f35b348015610ea357600080fd5b50610ed060048036036020811015610eba57600080fd5b81019080803590602001909291905050506125c9565b6040518082815260200191505060405180910390f35b348015610ef257600080fd5b50610efb6125f5565b6040518080602001828103825283818151815260200191508051906020019080838360005b83811015610f3b578082015181840152602081019050610f20565b50505050905090810190601f168015610f685780820380516001836020036101000a031916815260200191505b509250505060405180910390f35b348015610f8257600080fd5b50610fd160048036036040811015610f9957600080fd5b81019080803573ffffffffffffffffffffffffffffffffffffffff169060200190929190803515159060200190929190505050612697565b005b348015610fdf57600080fd5b5061100c60048036036020811015610ff657600080fd5b810190808035906020019092919050505061286f565b6040518082815260200191505060405180910390f35b34801561102e57600080fd5b5061105b6004803603602081101561104557600080fd5b8101908080359060200190929190505050612887565b6040518080602001828103825283818151815260200191508051906020019080838360005b8381101561109b578082015181840152602081019050611080565b50505050905090810190601f1680156110c85780820380516001836020036101000a031916815260200191505b509250505060405180910390f35b3480156110e257600080fd5b506111e6600480360360808110156110f957600080fd5b81019080803573ffffffffffffffffffffffffffffffffffffffff169060200190929190803573ffffffffffffffffffffffffffffffffffffffff169060200190929190803590602001909291908035906020019064010000000081111561116057600080fd5b82018360208201111561117257600080fd5b8035906020019184600183028401116401000000008311171561119457600080fd5b91908080601f016020809104026020016040519081016040528093929190818152602001838380828437600081840152601f19601f820116905080830192505050505050509192919290505050612937565b005b3480156111f457600080fd5b5061122b6004803603604081101561120b57600080fd5b8101908080359060200190929190803590602001909291905050506129cf565b005b34801561123957600080fd5b506112666004803603602081101561125057600080fd5b8101908080359060200190929190505050612b09565b6040518080602001828103825283818151815260200191508051906020019080838360005b838110156112a657808201518184015260208101905061128b565b50505050905090810190601f1680156112d35780820380516001836020036101000a031916815260200191505b509250505060405180910390f35b3480156112ed57600080fd5b506113246004803603604081101561130457600080fd5b810190808035906020019092919080359060200190929190505050612df2565b005b34801561133257600080fd5b5061135f6004803603602081101561134957600080fd5b8101908080359060200190929190505050612fbb565b6040518082815260200191505060405180910390f35b34801561138157600080fd5b506113e46004803603604081101561139857600080fd5b81019080803573ffffffffffffffffffffffffffffffffffffffff169060200190929190803573ffffffffffffffffffffffffffffffffffffffff169060200190929190505050613009565b604051808215151515815260200191505060405180910390f35b61142a6004803603602081101561141457600080fd5b81019080803590602001909291905050506130bc565b005b34801561143857600080fd5b5061147b6004803603602081101561144f57600080fd5b81019080803573ffffffffffffffffffffffffffffffffffffffff169060200190929190505050613291565b005b34801561148957600080fd5b506114c0600480360360408110156114a057600080fd5b8101908080359060200190929190803590602001909291905050506134a1565b005b6000806000837bffffffffffffffffffffffffffffffffffffffffffffffffffffffff19167bffffffffffffffffffffffffffffffffffffffffffffffffffffffff1916815260200190815260200160002060009054906101000a900460ff169050919050565b606060068054600181600116156101000203166002900480601f0160208091040260200160405190810160405280929190818152602001828054600181600116156101000203166002900480156115c15780601f10611596576101008083540402835291602001916115c1565b820191906000526020600020905b8154815290600101906020018083116115a457829003601f168201915b5050505050905090565b6000801515600a60009054906101000a900460ff161515146115ec57600080fd5b6115f582613636565b61164a576040517f08c379a000000000000000000000000000000000000000000000000000000000815260040180806020018281038252602c815260200180614c72602c913960400191505060405180910390fd5b6004600083815260200190815260200160002060009054906101000a900473ffffffffffffffffffffffffffffffffffffffff169050919050565b60001515600a60009054906101000a900460ff161515146116a557600080fd5b60006116b082611f3e565b90508073ffffffffffffffffffffffffffffffffffffffff168373ffffffffffffffffffffffffffffffffffffffff161415611737576040517f08c379a0000000000000000000000000000000000000000000000000000000008152600401808060200182810382526021815260200180614d226021913960400191505060405180910390fd5b8073ffffffffffffffffffffffffffffffffffffffff16611756613653565b73ffffffffffffffffffffffffffffffffffffffff16148061178557506117848161177f613653565b613009565b5b6117da576040517f08c379a0000000000000000000000000000000000000000000000000000000008152600401808060200182810382526038815260200180614bc56038913960400191505060405180910390fd5b6117e4838361365b565b505050565b816117f381613636565b611865576040517f08c379a00000000000000000000000000000000000000000000000000000000081526004018080602001828103825260058152602001807f6e6f6e657800000000000000000000000000000000000000000000000000000081525060200191505060405180910390fd5b61186d613653565b73ffffffffffffffffffffffffffffffffffffffff16600a60019054906101000a900473ffffffffffffffffffffffffffffffffffffffff1673ffffffffffffffffffffffffffffffffffffffff161461192f576040517f08c379a00000000000000000000000000000000000000000000000000000000081526004018080602001828103825260208152602001807f4f776e61626c653a2063616c6c6572206973206e6f7420746865206f776e657281525060200191505060405180910390fd5b6119398383613734565b505050565b600061194a60026137be565b905090565b611957613653565b73ffffffffffffffffffffffffffffffffffffffff16600a60019054906101000a900473ffffffffffffffffffffffffffffffffffffffff1673ffffffffffffffffffffffffffffffffffffffff1614611a19576040517f08c379a00000000000000000000000000000000000000000000000000000000081526004018080602001828103825260208152602001807f4f776e61626c653a2063616c6c6572206973206e6f7420746865206f776e657281525060200191505060405180910390fd5b816012541015611a2857600080fd5b60008090505b6010600084815260200190815260200160002054811015611a8457611a77611a7182600f60008781526020019081526020016000206137d390919063ffffffff16565b83613734565b8080600101915050611a2e565b7f9e5146492192ab364dd1d172f5c5a23d5d15fdd6547b0c424dcd5375523ae2e783836040518083815260200180602001828103825283818151815260200191508051906020019080838360005b83811015611aed578082015181840152602081019050611ad2565b50505050905090810190601f168015611b1a5780820380516001836020036101000a031916815260200191505b50935050505060405180910390a1505050565b60001515600a60009054906101000a900460ff16151514611b4d57600080fd5b611b5e611b58613653565b826137ed565b611bb3576040517f08c379a0000000000000000000000000000000000000000000000000000000008152600401808060200182810382526031815260200180614d436031913960400191505060405180910390fd5b611bbe8383836138e1565b505050565b600e6020528060005260406000206000915054906101000a900460ff1681565b6000611c3682600160008673ffffffffffffffffffffffffffffffffffffffff1673ffffffffffffffffffffffffffffffffffffffff1681526020019081526020016000206137d390919063ffffffff16565b905092915050565b81611c4881613636565b611cba576040517f08c379a00000000000000000000000000000000000000000000000000000000081526004018080602001828103825260058152602001807f6e6f6e657800000000000000000000000000000000000000000000000000000081525060200191505060405180910390fd5b611cc2613653565b73ffffffffffffffffffffffffffffffffffffffff16600a60019054906101000a900473ffffffffffffffffffffffffffffffffffffffff1673ffffffffffffffffffffffffffffffffffffffff1614611d84576040517f08c379a00000000000000000000000000000000000000000000000000000000081526004018080602001828103825260208152602001807f4f776e61626c653a2063616c6c6572206973206e6f7420746865206f776e657281525060200191505060405180910390fd5b3373ffffffffffffffffffffffffffffffffffffffff16611da484611f3e565b73ffffffffffffffffffffffffffffffffffffffff161415611dc557600080fd5b81600c60008581526020019081526020016000209080519060200190611dec929190614a2f565b50505050565b60001515600a60009054906101000a900460ff16151514611e1257600080fd5b611e2d83838360405180602001604052806000815250612937565b505050565b600080611e49836002613b0e90919063ffffffff16565b50905080915050919050565b611e5d613653565b73ffffffffffffffffffffffffffffffffffffffff16600a60019054906101000a900473ffffffffffffffffffffffffffffffffffffffff1673ffffffffffffffffffffffffffffffffffffffff1614611f1f576040517f08c379a00000000000000000000000000000000000000000000000000000000081526004018080602001828103825260208152602001807f4f776e61626c653a2063616c6c6572206973206e6f7420746865206f776e657281525060200191505060405180910390fd5b611f2e82600160125401612df2565b611f3a6012548261194f565b5050565b6000611f6e82604051806060016040528060298152602001614c27602991396002613b3d9092919063ffffffff16565b9050919050565b606060098054600181600116156101000203166002900480601f01602080910402602001604051908101604052809291908181526020018280546001816001161561010002031660029004801561200d5780601f10611fe25761010080835404028352916020019161200d565b820191906000526020600020905b815481529060010190602001808311611ff057829003601f168201915b5050505050905090565b60008073ffffffffffffffffffffffffffffffffffffffff168273ffffffffffffffffffffffffffffffffffffffff16141561209e576040517f08c379a000000000000000000000000000000000000000000000000000000000815260040180806020018281038252602a815260200180614bfd602a913960400191505060405180910390fd5b6120e5600160008473ffffffffffffffffffffffffffffffffffffffff1673ffffffffffffffffffffffffffffffffffffffff168152602001908152602001600020613b5c565b9050919050565b6120f4613653565b73ffffffffffffffffffffffffffffffffffffffff16600a60019054906101000a900473ffffffffffffffffffffffffffffffffffffffff1673ffffffffffffffffffffffffffffffffffffffff16146121b6576040517f08c379a00000000000000000000000000000000000000000000000000000000081526004018080602001828103825260208152602001807f4f776e61626c653a2063616c6c6572206973206e6f7420746865206f776e657281525060200191505060405180910390fd5b600073ffffffffffffffffffffffffffffffffffffffff16600a60019054906101000a900473ffffffffffffffffffffffffffffffffffffffff1673ffffffffffffffffffffffffffffffffffffffff167f8be0079c531659141344cd1fd0a4f28419497f9722a3daafe3b4186f6b6457e060405160405180910390a36000600a60016101000a81548173ffffffffffffffffffffffffffffffffffffffff021916908373ffffffffffffffffffffffffffffffffffffffff160217905550565b61227f613653565b73ffffffffffffffffffffffffffffffffffffffff16600a60019054906101000a900473ffffffffffffffffffffffffffffffffffffffff1673ffffffffffffffffffffffffffffffffffffffff1614612341576040517f08c379a00000000000000000000000000000000000000000000000000000000081526004018080602001828103825260208152602001807f4f776e61626c653a2063616c6c6572206973206e6f7420746865206f776e657281525060200191505060405180910390fd5b80600b60008481526020019081526020016000209080519060200190612368929190614a2f565b505050565b600d6020528060005260406000206000915090505481565b6060600b60008381526020019081526020016000208054600181600116156101000203166002900480601f01602080910402602001604051908101604052809291908181526020018280546001816001161561010002031660029004801561242e5780601f106124035761010080835404028352916020019161242e565b820191906000526020600020905b81548152906001019060200180831161241157829003601f168201915b50505050509050919050565b6060600c60008381526020019081526020016000208054600181600116156101000203166002900480601f0160208091040260200160405190810160405280929190818152602001828054600181600116156101000203166002900480156124e35780601f106124b8576101008083540402835291602001916124e3565b820191906000526020600020905b8154815290600101906020018083116124c657829003601f168201915b50505050509050919050565b6000600a60019054906101000a900473ffffffffffffffffffffffffffffffffffffffff16905090565b600b6020528060005260406000206000915090508054600181600116156101000203166002900480601f0160208091040260200160405190810160405280929190818152602001828054600181600116156101000203166002900480156125c15780601f10612596576101008083540402835291602001916125c1565b820191906000526020600020905b8154815290600101906020018083116125a457829003601f168201915b505050505081565b60008160125410156125da57600080fd5b60106000838152602001908152602001600020549050919050565b606060078054600181600116156101000203166002900480601f01602080910402602001604051908101604052809291908181526020018280546001816001161561010002031660029004801561268d5780601f106126625761010080835404028352916020019161268d565b820191906000526020600020905b81548152906001019060200180831161267057829003601f168201915b5050505050905090565b60001515600a60009054906101000a900460ff161515146126b757600080fd5b6126bf613653565b73ffffffffffffffffffffffffffffffffffffffff168273ffffffffffffffffffffffffffffffffffffffff161415612760576040517f08c379a00000000000000000000000000000000000000000000000000000000081526004018080602001828103825260198152602001807f4552433732313a20617070726f766520746f2063616c6c65720000000000000081525060200191505060405180910390fd5b806005600061276d613653565b73ffffffffffffffffffffffffffffffffffffffff1673ffffffffffffffffffffffffffffffffffffffff16815260200190815260200160002060008473ffffffffffffffffffffffffffffffffffffffff1673ffffffffffffffffffffffffffffffffffffffff16815260200190815260200160002060006101000a81548160ff0219169083151502179055508173ffffffffffffffffffffffffffffffffffffffff1661281a613653565b73ffffffffffffffffffffffffffffffffffffffff167f17307eab39ab6107e8899845ad3d59bd9653f200f220920489ca2b5937696c3183604051808215151515815260200191505060405180910390a35050565b60106020528060005260406000206000915090505481565b600c6020528060005260406000206000915090508054600181600116156101000203166002900480601f01602080910402602001604051908101604052809291908181526020018280546001816001161561010002031660029004801561292f5780601f106129045761010080835404028352916020019161292f565b820191906000526020600020905b81548152906001019060200180831161291257829003601f168201915b505050505081565b60001515600a60009054906101000a900460ff1615151461295757600080fd5b612968612962613653565b836137ed565b6129bd576040517f08c379a0000000000000000000000000000000000000000000000000000000008152600401808060200182810382526031815260200180614d436031913960400191505060405180910390fd5b6129c984848484613b71565b50505050565b6129d7613653565b73ffffffffffffffffffffffffffffffffffffffff16600a60019054906101000a900473ffffffffffffffffffffffffffffffffffffffff1673ffffffffffffffffffffffffffffffffffffffff1614612a99576040517f08c379a00000000000000000000000000000000000000000000000000000000081526004018080602001828103825260208152602001807f4f776e61626c653a2063616c6c6572206973206e6f7420746865206f776e657281525060200191505060405180910390fd5b816012541015612aa857600080fd5b60008090505b6010600084815260200190815260200160002054811015612b0457612af7612af182600f60008781526020019081526020016000206137d390919063ffffffff16565b836134a1565b8080600101915050612aae565b505050565b6060612b1482613636565b612b69576040517f08c379a000000000000000000000000000000000000000000000000000000000815260040180806020018281038252602f815260200180614cf3602f913960400191505060405180910390fd5b6060600860008481526020019081526020016000208054600181600116156101000203166002900480601f016020809104026020016040519081016040528092919081815260200182805460018160011615610100020316600290048015612c125780601f10612be757610100808354040283529160200191612c12565b820191906000526020600020905b815481529060010190602001808311612bf557829003601f168201915b50505050509050600060098054600181600116156101000203166002900490501415612c415780915050612ded565b600081511115612d1a576009816040516020018083805460018160011615610100020316600290048015612cac5780601f10612c8a576101008083540402835291820191612cac565b820191906000526020600020905b815481529060010190602001808311612c98575b505082805190602001908083835b60208310612cdd5780518252602082019150602081019050602083039250612cba565b6001836020036101000a03801982511681845116808217855250505050505090500192505050604051602081830303815290604052915050612ded565b6009612d2584613c03565b6040516020018083805460018160011615610100020316600290048015612d835780601f10612d61576101008083540402835291820191612d83565b820191906000526020600020905b815481529060010190602001808311612d6f575b505082805190602001908083835b60208310612db45780518252602082019150602081019050602083039250612d91565b6001836020036101000a038019825116818451168082178552505050505050905001925050506040516020818303038152906040529150505b919050565b612dfa613653565b73ffffffffffffffffffffffffffffffffffffffff16600a60019054906101000a900473ffffffffffffffffffffffffffffffffffffffff1673ffffffffffffffffffffffffffffffffffffffff1614612ebc576040517f08c379a00000000000000000000000000000000000000000000000000000000081526004018080602001828103825260208152602001807f4f776e61626c653a2063616c6c6572206973206e6f7420746865206f776e657281525060200191505060405180910390fd5b8060125410612f4057612ecf8282613d33565b8160106000838152602001908152602001600020540160106000838152602001908152602001600020819055507f0b9b8c374fb944bca2ba4cf3872fa34fb64bae5c59bd7b0852a1366bcd10a03b8282604051808381526020018281526020019250505060405180910390a1612fb7565b612f4f82600160125401613d33565b60016012540160128190555081601060006012548152602001908152602001600020819055507f0b9b8c374fb944bca2ba4cf3872fa34fb64bae5c59bd7b0852a1366bcd10a03b82601254604051808381526020018281526020019250505060405180910390a15b5050565b600060011515600e600084815260200190815260200160002060009054906101000a900460ff16151514612fee57600080fd5b600d6000838152602001908152602001600020549050919050565b6000801515600a60009054906101000a900460ff1615151461302a57600080fd5b600560008473ffffffffffffffffffffffffffffffffffffffff1673ffffffffffffffffffffffffffffffffffffffff16815260200190815260200160002060008373ffffffffffffffffffffffffffffffffffffffff1673ffffffffffffffffffffffffffffffffffffffff16815260200190815260200160002060009054906101000a900460ff16905092915050565b806130c681613636565b613138576040517f08c379a00000000000000000000000000000000000000000000000000000000081526004018080602001828103825260058152602001807f6e6f6e657800000000000000000000000000000000000000000000000000000081525060200191505060405180910390fd5b60011515600e600084815260200190815260200160002060009054906101000a900460ff16151514801561317f5750600d6000838152602001908152602001600020543410155b61318857600080fd5b61319a6131936124ef565b33846138e1565b6000600e600084815260200190815260200160002060006101000a81548160ff02191690831515021790555060006131d06124ef565b90508073ffffffffffffffffffffffffffffffffffffffff166108fc349081150290604051600060405180830381858888f19350505050158015613218573d6000803e3d6000fd5b507f8f3b8e2afb709a56cd086b1a4e162d1ed7d0f7a69d431f68fd014d08b87e50b2833433604051808481526020018381526020018273ffffffffffffffffffffffffffffffffffffffff1673ffffffffffffffffffffffffffffffffffffffff168152602001935050505060405180910390a1505050565b613299613653565b73ffffffffffffffffffffffffffffffffffffffff16600a60019054906101000a900473ffffffffffffffffffffffffffffffffffffffff1673ffffffffffffffffffffffffffffffffffffffff161461335b576040517f08c379a00000000000000000000000000000000000000000000000000000000081526004018080602001828103825260208152602001807f4f776e61626c653a2063616c6c6572206973206e6f7420746865206f776e657281525060200191505060405180910390fd5b600073ffffffffffffffffffffffffffffffffffffffff168173ffffffffffffffffffffffffffffffffffffffff1614156133e1576040517f08c379a0000000000000000000000000000000000000000000000000000000008152600401808060200182810382526026815260200180614b296026913960400191505060405180910390fd5b8073ffffffffffffffffffffffffffffffffffffffff16600a60019054906101000a900473ffffffffffffffffffffffffffffffffffffffff1673ffffffffffffffffffffffffffffffffffffffff167f8be0079c531659141344cd1fd0a4f28419497f9722a3daafe3b4186f6b6457e060405160405180910390a380600a60016101000a81548173ffffffffffffffffffffffffffffffffffffffff021916908373ffffffffffffffffffffffffffffffffffffffff16021790555050565b816134ab81613636565b61351d576040517f08c379a00000000000000000000000000000000000000000000000000000000081526004018080602001828103825260058152602001807f6e6f6e657800000000000000000000000000000000000000000000000000000081525060200191505060405180910390fd5b613525613653565b73ffffffffffffffffffffffffffffffffffffffff16600a60019054906101000a900473ffffffffffffffffffffffffffffffffffffffff1673ffffffffffffffffffffffffffffffffffffffff16146135e7576040517f08c379a00000000000000000000000000000000000000000000000000000000081526004018080602001828103825260208152602001807f4f776e61626c653a2063616c6c6572206973206e6f7420746865206f776e657281525060200191505060405180910390fd5b3373ffffffffffffffffffffffffffffffffffffffff1661360784611f3e565b73ffffffffffffffffffffffffffffffffffffffff161461362757600080fd5b6136318383613d99565b505050565b600061364c826002613e2090919063ffffffff16565b9050919050565b600033905090565b60001515600a60009054906101000a900460ff1615151461367b57600080fd5b816004600083815260200190815260200160002060006101000a81548173ffffffffffffffffffffffffffffffffffffffff021916908373ffffffffffffffffffffffffffffffffffffffff160217905550808273ffffffffffffffffffffffffffffffffffffffff166136ee83611f3e565b73ffffffffffffffffffffffffffffffffffffffff167f8c5be1e5ebec7d5bd14f71427d1e84f3dd0314c0f7b2291e5b200ac8c7c3b92560405160405180910390a45050565b61373d82613636565b613792576040517f08c379a000000000000000000000000000000000000000000000000000000000815260040180806020018281038252602c815260200180614c9e602c913960400191505060405180910390fd5b806008600084815260200190815260200160002090805190602001906137b9929190614a2f565b505050565b60006137cc82600001613e3a565b9050919050565b60006137e28360000183613e4b565b60001c905092915050565b60006137f882613636565b61384d576040517f08c379a000000000000000000000000000000000000000000000000000000000815260040180806020018281038252602c815260200180614b99602c913960400191505060405180910390fd5b600061385883611f3e565b90508073ffffffffffffffffffffffffffffffffffffffff168473ffffffffffffffffffffffffffffffffffffffff1614806138c757508373ffffffffffffffffffffffffffffffffffffffff166138af846115cb565b73ffffffffffffffffffffffffffffffffffffffff16145b806138d857506138d78185613009565b5b91505092915050565b8273ffffffffffffffffffffffffffffffffffffffff1661390182611f3e565b73ffffffffffffffffffffffffffffffffffffffff161461396d576040517f08c379a0000000000000000000000000000000000000000000000000000000008152600401808060200182810382526029815260200180614cca6029913960400191505060405180910390fd5b600073ffffffffffffffffffffffffffffffffffffffff168273ffffffffffffffffffffffffffffffffffffffff1614156139f3576040517f08c379a0000000000000000000000000000000000000000000000000000000008152600401808060200182810382526024815260200180614b4f6024913960400191505060405180910390fd5b613a4481600160008673ffffffffffffffffffffffffffffffffffffffff1673ffffffffffffffffffffffffffffffffffffffff168152602001908152602001600020613ece90919063ffffffff16565b50613a9681600160008573ffffffffffffffffffffffffffffffffffffffff1673ffffffffffffffffffffffffffffffffffffffff168152602001908152602001600020613ee890919063ffffffff16565b50613aad81836002613f029092919063ffffffff16565b50808273ffffffffffffffffffffffffffffffffffffffff168473ffffffffffffffffffffffffffffffffffffffff167fddf252ad1be2c89b69c2b068fc378daa952ba7f163c4a11628f55a4df523b3ef60405160405180910390a4505050565b600080600080613b218660000186613f37565b915091508160001c8160001c8090509350935050509250929050565b6000613b50846000018460001b84613fd0565b60001c90509392505050565b6000613b6a826000016140c6565b9050919050565b60001515600a60009054906101000a900460ff16151514613b9157600080fd5b613b9c8484846138e1565b613ba8848484846140d7565b613bfd576040517f08c379a0000000000000000000000000000000000000000000000000000000008152600401808060200182810382526032815260200180614af76032913960400191505060405180910390fd5b50505050565b60606000821415613c4b576040518060400160405280600181526020017f30000000000000000000000000000000000000000000000000000000000000008152509050613d2e565b600082905060005b60008214613c75578080600101915050600a8281613c6d57fe5b049150613c53565b6060816040519080825280601f01601f191660200182016040528015613caa5781602001600182028038833980820191505090505b50905060006001830390508593505b60008414613d2657600a8481613ccb57fe5b0660300160f81b82828060019003935081518110613ce557fe5b60200101907effffffffffffffffffffffffffffffffffffffffffffffffffffffffffffff1916908160001a905350600a8481613d1e57fe5b049350613cb9565b819450505050505b919050565b6000600190505b828111613d9457601160008154809291906001019190505550613d5f3360115461431c565b613d86601154600f6000858152602001908152602001600020613ee890919063ffffffff16565b508080600101915050613d3a565b505050565b80600d6000848152602001908152602001600020819055506001600e600084815260200190815260200160002060006101000a81548160ff0219169083151502179055507f44ebbd54211039351c915cb619b35cef44da7224679bc14417d93c4bc64ae16c8282604051808381526020018281526020019250505060405180910390a15050565b6000613e32836000018360001b614510565b905092915050565b600081600001805490509050919050565b600081836000018054905011613eac576040517f08c379a0000000000000000000000000000000000000000000000000000000008152600401808060200182810382526022815260200180614ad56022913960400191505060405180910390fd5b826000018281548110613ebb57fe5b9060005260206000200154905092915050565b6000613ee0836000018360001b614533565b905092915050565b6000613efa836000018360001b61461b565b905092915050565b6000613f2e846000018460001b8473ffffffffffffffffffffffffffffffffffffffff1660001b61468b565b90509392505050565b60008082846000018054905011613f99576040517f08c379a0000000000000000000000000000000000000000000000000000000008152600401808060200182810382526022815260200180614c506022913960400191505060405180910390fd5b6000846000018481548110613faa57fe5b906000526020600020906002020190508060000154816001015492509250509250929050565b60008084600101600085815260200190815260200160002054905060008114158390614097576040517f08c379a00000000000000000000000000000000000000000000000000000000081526004018080602001828103825283818151815260200191508051906020019080838360005b8381101561405c578082015181840152602081019050614041565b50505050905090810190601f1680156140895780820380516001836020036101000a031916815260200191505b509250505060405180910390fd5b508460000160018203815481106140aa57fe5b9060005260206000209060020201600101549150509392505050565b600081600001805490509050919050565b60006140f88473ffffffffffffffffffffffffffffffffffffffff16614767565b6141055760019050614314565b606061429b63150b7a0260e01b61411a613653565b888787604051602401808573ffffffffffffffffffffffffffffffffffffffff1673ffffffffffffffffffffffffffffffffffffffff1681526020018473ffffffffffffffffffffffffffffffffffffffff1673ffffffffffffffffffffffffffffffffffffffff16815260200183815260200180602001828103825283818151815260200191508051906020019080838360005b838110156141ca5780820151818401526020810190506141af565b50505050905090810190601f1680156141f75780820380516001836020036101000a031916815260200191505b5095505050505050604051602081830303815290604052907bffffffffffffffffffffffffffffffffffffffffffffffffffffffff19166020820180517bffffffffffffffffffffffffffffffffffffffffffffffffffffffff8381831617835250505050604051806060016040528060328152602001614af7603291398773ffffffffffffffffffffffffffffffffffffffff1661477a9092919063ffffffff16565b905060008180602001905160208110156142b457600080fd5b8101908080519060200190929190505050905063150b7a0260e01b7bffffffffffffffffffffffffffffffffffffffffffffffffffffffff1916817bffffffffffffffffffffffffffffffffffffffffffffffffffffffff191614925050505b949350505050565b600073ffffffffffffffffffffffffffffffffffffffff168273ffffffffffffffffffffffffffffffffffffffff1614156143bf576040517f08c379a00000000000000000000000000000000000000000000000000000000081526004018080602001828103825260208152602001807f4552433732313a206d696e7420746f20746865207a65726f206164647265737381525060200191505060405180910390fd5b6143c881613636565b1561443b576040517f08c379a000000000000000000000000000000000000000000000000000000000815260040180806020018281038252601c8152602001807f4552433732313a20746f6b656e20616c7265616479206d696e7465640000000081525060200191505060405180910390fd5b61444760008383614792565b61449881600160008573ffffffffffffffffffffffffffffffffffffffff1673ffffffffffffffffffffffffffffffffffffffff168152602001908152602001600020613ee890919063ffffffff16565b506144af81836002613f029092919063ffffffff16565b50808273ffffffffffffffffffffffffffffffffffffffff16600073ffffffffffffffffffffffffffffffffffffffff167fddf252ad1be2c89b69c2b068fc378daa952ba7f163c4a11628f55a4df523b3ef60405160405180910390a45050565b600080836001016000848152602001908152602001600020541415905092915050565b6000808360010160008481526020019081526020016000205490506000811461460f576000600182039050600060018660000180549050039050600086600001828154811061457e57fe5b906000526020600020015490508087600001848154811061459b57fe5b90600052602060002001819055506001830187600101600083815260200190815260200160002081905550866000018054806145d357fe5b60019003818190600052602060002001600090559055866001016000878152602001908152602001600020600090556001945050505050614615565b60009150505b92915050565b60006146278383614797565b614680578260000182908060018154018082558091505060019003906000526020600020016000909190919091505582600001805490508360010160008481526020019081526020016000208190555060019050614685565b600090505b92915050565b600080846001016000858152602001908152602001600020549050600081141561473257846000016040518060400160405280868152602001858152509080600181540180825580915050600190039060005260206000209060020201600090919091909150600082015181600001556020820151816001015550508460000180549050856001016000868152602001908152602001600020819055506001915050614760565b8285600001600183038154811061474557fe5b90600052602060002090600202016001018190555060009150505b9392505050565b600080823b905060008111915050919050565b606061478984846000856147ba565b90509392505050565b505050565b600080836001016000848152602001908152602001600020541415905092915050565b606082471015614815576040517f08c379a0000000000000000000000000000000000000000000000000000000008152600401808060200182810382526026815260200180614b736026913960400191505060405180910390fd5b61481e85614767565b614890576040517f08c379a000000000000000000000000000000000000000000000000000000000815260040180806020018281038252601d8152602001807f416464726573733a2063616c6c20746f206e6f6e2d636f6e747261637400000081525060200191505060405180910390fd5b600060608673ffffffffffffffffffffffffffffffffffffffff1685876040518082805190602001908083835b602083106148e057805182526020820191506020810190506020830392506148bd565b6001836020036101000a03801982511681845116808217855250505050505090500191505060006040518083038185875af1925050503d8060008114614942576040519150601f19603f3d011682016040523d82523d6000602084013e614947565b606091505b5091509150614957828286614963565b92505050949350505050565b6060831561497357829050614a28565b6000835111156149865782518084602001fd5b816040517f08c379a00000000000000000000000000000000000000000000000000000000081526004018080602001828103825283818151815260200191508051906020019080838360005b838110156149ed5780820151818401526020810190506149d2565b50505050905090810190601f168015614a1a5780820380516001836020036101000a031916815260200191505b509250505060405180910390fd5b9392505050565b828054600181600116156101000203166002900490600052602060002090601f016020900481019282601f10614a7057805160ff1916838001178555614a9e565b82800160010185558215614a9e579182015b82811115614a9d578251825591602001919060010190614a82565b5b509050614aab9190614aaf565b5090565b614ad191905b80821115614acd576000816000905550600101614ab5565b5090565b9056fe456e756d657261626c655365743a20696e646578206f7574206f6620626f756e64734552433732313a207472616e7366657220746f206e6f6e20455243373231526563656976657220696d706c656d656e7465724f776e61626c653a206e6577206f776e657220697320746865207a65726f20616464726573734552433732313a207472616e7366657220746f20746865207a65726f2061646472657373416464726573733a20696e73756666696369656e742062616c616e636520666f722063616c6c4552433732313a206f70657261746f7220717565727920666f72206e6f6e6578697374656e7420746f6b656e4552433732313a20617070726f76652063616c6c6572206973206e6f74206f776e6572206e6f7220617070726f76656420666f7220616c6c4552433732313a2062616c616e636520717565727920666f7220746865207a65726f20616464726573734552433732313a206f776e657220717565727920666f72206e6f6e6578697374656e7420746f6b656e456e756d657261626c654d61703a20696e646578206f7574206f6620626f756e64734552433732313a20617070726f76656420717565727920666f72206e6f6e6578697374656e7420746f6b656e4552433732314d657461646174613a2055524920736574206f66206e6f6e6578697374656e7420746f6b656e4552433732313a207472616e73666572206f6620746f6b656e2074686174206973206e6f74206f776e4552433732314d657461646174613a2055524920717565727920666f72206e6f6e6578697374656e7420746f6b656e4552433732313a20617070726f76616c20746f2063757272656e74206f776e65724552433732313a207472616e736665722063616c6c6572206973206e6f74206f776e6572206e6f7220617070726f766564a26469706673582212200d5406e10b76f647daad22279faca0a3a06ca79b1fbf5849355ea229ca2788ce64736f6c634300060200334f776e61626c653a206e6577206f776e657220697320746865207a65726f2061646472657373",
  "source": "pragma solidity  >=  0.4.25;\n\nimport \"@openzeppelin/contracts/token/ERC721/ERC721.sol\";\nimport \"@openzeppelin/contracts/access/Ownable.sol\";\nimport \"@openzeppelin/contracts/utils/EnumerableSet.sol\";\nimport \"NFTcryptTools.sol\";\n\n/// @title NFTcrypt - non-transferable ERC721 with secret content\n/// @author Martin Strobl\n/// @notice The contract is a factory for (non-transferable) ERC721 NFC standard (Child contracts) with additional E2E secret handling functions\ncontract NFTcrypt {\n  using EnumerableSet for EnumerableSet.AddressSet;\n\n\n\n    mapping (address => EnumerableSet.AddressSet) private _deployedSet;\n\n    /// @notice Deploy a Child ERC721 contract\n    /// @dev The contract has to be payable despite no need for that\n    /// @param name name of the ERC721 contract (e.g. Cryptokitties)\n    /// @param abb Abbreviation of the contract name (e.g. CK)\n    function createChild(string memory name, string memory abb) public payable {\n        address issueContract = address((new Child).value(msg.value)(name, abb, msg.sender));\n        _deployedSet[msg.sender].add(issueContract);\n    }\n\n    /// @notice Return a list of deployed contracts\n    /// @dev The at() approach may be suboptimal\n    /// @param owner address of the owner whose contract we want to return\n    /// @param id position of the contract in the list of owner's contracts\n    /// @return address of a deployed Child contract\n    function deployedAddress(address owner, uint256 id) public view returns (address) {\n      return _deployedSet[owner].at(id);\n    }\n}\n/// @title ERC721 implementation of NFTcrypt ERC721 tokens with ncrypted secret\n/// @author Martin Strobl\n/// @notice contract handles issuance of NFTs, their setup, sale, and secret transmission\n/// @notice transfers are disabled via\n/// @dev view functions and mappings are inherited from NFTcryptTools.sol\ncontract Child is ERC721,Ownable,NFTcryptTools {\n  /// @notice Sets up ERC721 naming and transfers contract ownership\n  /// @param name name of the ERC721 contract (passed from factory)\n  /// @param abb Abbreviation of the contract name (passed from factory)\n  /// @param newOwner Address of the owner (passed from factory)\n   constructor (string memory name, string memory abb, address newOwner) ERC721(name, abb) public payable {\n        transferOwnership(newOwner);\n   }\n   /// @notice Log for new issuance of tokens to a batch\n   /// @param numberOfNft Number of tokens issued\n   event LogNewToB(uint256 numberOfNft, uint256 batchId);\n   /// @notice Sets up ERC721 naming and transfers contract ownership\n   event LogBatchURI(uint256 batchId, string _tokenURI);\n   /// @notice Sets up ERC721 naming and transfers contract ownership  \n   event LogSold(uint256 tokenId, uint256 price, address buyer);\n\n   /// @notice Mints new NFT tokens and adds to a batch\n   /// @dev _batchSet keeps track of tokens in a batch\n   /// @param number how many tokens to issue\n   /// @param batch to which batch should the tokens be assigned\n   function _issueNFT(uint256 number, uint256 batch) internal {\n     uint256 i =1;\n     while (i<= number) {\n       maxIndex++;\n       _mint(msg.sender,maxIndex);\n       _batchSet[batch].add(maxIndex);\n        i++;\n     }\n   }\n\n   /// @notice Handles issance of tokens to a new batch or to and existing batch\n   /// @dev could be split to 2 functions but this saves on the contract size, if higher batchId than the max batch (lastBatch), issued to a new batch with id lastBatch+1\n   /// @param numberOfNft number of tokens to be issued\n   /// @param batchId id of the batch I want the new tokens issue to\n   function NewToBatch(uint256 numberOfNft, uint256 batchId) onlyOwner public  {\n     if (lastBatch>=batchId) {\n       _issueNFT(numberOfNft,batchId);\n       batchMax[batchId] = batchMax[batchId] + numberOfNft;\n       emit LogNewToB(numberOfNft,batchId);\n     } else {\n     _issueNFT(numberOfNft,lastBatch+1);\n     lastBatch = lastBatch+1;\n     batchMax[lastBatch] = numberOfNft;\n     emit LogNewToB(numberOfNft,lastBatch);\n   }\n\n   }\n\n\n   /// @notice Sets token URI (metadata) for the whole batch\n   /// @param batchId the target batch\n   /// @param _tokenURI the metadata to assign\n   function setBatchTokenURI(uint256 batchId, string memory _tokenURI) onlyOwner public  {\n    require(lastBatch>=batchId);\n    uint256 _i = 0;\n    while (_i<batchMax[batchId]) {\n      _setTokenURI(_batchSet[batchId].at(_i), _tokenURI);\n      _i++;\n    }\n    emit LogBatchURI( batchId, _tokenURI);\n   }\n\n   /// @notice Issues a new batch and assigns URI (metadata)\n   /// @param numberOfNft number of tokens to issue\n   /// @param _tokenURI the metadata to assign\n   function newBatchWithURI(uint256 numberOfNft,string memory _tokenURI) onlyOwner public {\n     NewToBatch(numberOfNft,lastBatch+1);\n     setBatchTokenURI(lastBatch,_tokenURI);\n   }\n\n   /// @notice Sets token URI (metadata) for a token\n   /// @param tokenId the target token\n   /// @param _tokenURI the metadata to assign\n   function setTokenURI(uint256 tokenId, string memory _tokenURI) public tokenExists(tokenId) onlyOwner {\n     _setTokenURI(tokenId,_tokenURI);\n   }\n\n   /// @notice Saves encrypted secret (contract owner releases the secret encrypted with token holder's encr. key)\n   /// @dev checks that token exist, operation by batch is not possible, only for sold tokens\n   /// @param tokenId the token for secret assignment\n   /// @param secret the encrypted message I want to assign as a secret\n    function setEncSecret(uint256 tokenId, string memory secret) public tokenExists(tokenId) onlyOwner {\n      require(ownerOf(tokenId)!=msg.sender);\n     _encrSecret[tokenId] = secret;\n   }\n\n   /// @notice Saves hash of the decrypted secret for the whole batch\n   /// @dev for client-side verification of the secret\n   /// @param batchId target batch\n   /// @param hashed the hash of unencrypted secret\n    function setSecretHash(uint256 batchId, string memory hashed) public onlyOwner {\n     _secretHash[batchId] = hashed;\n   }\n\n   /// @notice Sets the token price for a token and puts it up for sale\n   /// @dev callable only by the owner of the contract and toke, i.e. a token can be sold only once\n   /// @param tokenId target token\n   /// @param price min sale price\n   function setPrice(uint256 tokenId, uint256 price) public tokenExists(tokenId) onlyOwner {\n     require(ownerOf(tokenId)==msg.sender);\n     _setPrice(tokenId,price);\n   }\n\n   /// @notice Sets the token price for the whole batch and puts it up for sale\n   /// @dev callable only by the owner of the contract and toke, i.e. a token can be sold only once\n   /// @param batchId target batch\n   /// @param price min sale price\n   function setBatchPrice(uint256 batchId, uint256 price) onlyOwner public  {\n    require(lastBatch>=batchId);\n    uint256 _i = 0;\n    while (_i<batchMax[batchId]) {\n      setPrice(_batchSet[batchId].at(_i), price);\n      _i++;\n    }\n   }\n\n   /// @notice Buy a token\n   /// @dev token has to be put up for sale and the amount must be more or equal than price\n   /// @param tokenId target token\n   function purchase(uint256 tokenId) public tokenExists(tokenId) payable {\n     require(forSale[tokenId]==true && msg.value>=origPrice[tokenId]);\n     _transfer(owner(), msg.sender, tokenId);\n     forSale[tokenId]=false;\n     address payable seller = payable(owner());\n     seller.transfer(msg.value);\n     emit LogSold( tokenId,  msg.value, msg.sender);\n   }\n}\n",
  "sourcePath": "/Users/au642254/Disk Google/eth_ad/dev/nftcrypt/truffle_repo/nftcrypt/contracts-truffle/contracts/NFTcrypt.sol",
  "compiler": {
    "name": "solc",
    "version": "0.6.2+commit.bacdbe57.Emscripten.clang"
  },
  "schemaVersion": "3.1.0",
  "updatedAt": "2020-12-09T16:17:15.274Z",
  "devdoc": {
    "author": "Martin Strobl",
    "details": "view functions and mappings are inherited from NFTcryptTools.sol",
    "methods": {
      "NewToBatch(uint256,uint256)": {
        "details": "could be split to 2 functions but this saves on the contract size, if higher batchId than the max batch (lastBatch), issued to a new batch with id lastBatch+1",
        "params": {
          "batchId": "id of the batch I want the new tokens issue to",
          "numberOfNft": "number of tokens to be issued"
        }
      },
      "approve(address,uint256)": {
        "details": "See {IERC721-approve}."
      },
      "balanceOf(address)": {
        "details": "See {IERC721-balanceOf}."
      },
      "baseURI()": {
        "details": "Returns the base URI set via {_setBaseURI}. This will be automatically added as a prefix in {tokenURI} to each token's URI, or to the token ID if no specific URI is set for that token ID."
      },
      "batchSize(uint256)": {
        "details": "the require() ensures batch exists",
        "params": {
          "batchId": "target batch"
        },
        "returns": {
          "_0": "number of tokens in a batch"
        }
      },
      "constructor": {
        "params": {
          "abb": "Abbreviation of the contract name (passed from factory)",
          "name": "name of the ERC721 contract (passed from factory)",
          "newOwner": "Address of the owner (passed from factory)"
        }
      },
      "getApproved(uint256)": {
        "details": "See {IERC721-getApproved}."
      },
      "getPrice(uint256)": {
        "details": "the require() ensures the token is for sale",
        "params": {
          "tokenId": "target token"
        },
        "returns": {
          "_0": "the min price for a given token as uint256"
        }
      },
      "isApprovedForAll(address,address)": {
        "details": "See {IERC721-isApprovedForAll}."
      },
      "name()": {
        "details": "See {IERC721Metadata-name}."
      },
      "newBatchWithURI(uint256,string)": {
        "params": {
          "_tokenURI": "the metadata to assign",
          "numberOfNft": "number of tokens to issue"
        }
      },
      "owner()": {
        "details": "Returns the address of the current owner."
      },
      "ownerOf(uint256)": {
        "details": "See {IERC721-ownerOf}."
      },
      "purchase(uint256)": {
        "details": "token has to be put up for sale and the amount must be more or equal than price",
        "params": {
          "tokenId": "target token"
        }
      },
      "renounceOwnership()": {
        "details": "Leaves the contract without owner. It will not be possible to call `onlyOwner` functions anymore. Can only be called by the current owner.     * NOTE: Renouncing ownership will leave the contract without an owner, thereby removing any functionality that is only available to the owner."
      },
      "safeTransferFrom(address,address,uint256)": {
        "details": "See {IERC721-safeTransferFrom}."
      },
      "safeTransferFrom(address,address,uint256,bytes)": {
        "details": "See {IERC721-safeTransferFrom}."
      },
      "setApprovalForAll(address,bool)": {
        "details": "See {IERC721-setApprovalForAll}."
      },
      "setBatchPrice(uint256,uint256)": {
        "details": "callable only by the owner of the contract and toke, i.e. a token can be sold only once",
        "params": {
          "batchId": "target batch",
          "price": "min sale price"
        }
      },
      "setBatchTokenURI(uint256,string)": {
        "params": {
          "_tokenURI": "the metadata to assign",
          "batchId": "the target batch"
        }
      },
      "setEncSecret(uint256,string)": {
        "details": "checks that token exist, operation by batch is not possible, only for sold tokens",
        "params": {
          "secret": "the encrypted message I want to assign as a secret",
          "tokenId": "the token for secret assignment"
        }
      },
      "setPrice(uint256,uint256)": {
        "details": "callable only by the owner of the contract and toke, i.e. a token can be sold only once",
        "params": {
          "price": "min sale price",
          "tokenId": "target token"
        }
      },
      "setSecretHash(uint256,string)": {
        "details": "for client-side verification of the secret",
        "params": {
          "batchId": "target batch",
          "hashed": "the hash of unencrypted secret"
        }
      },
      "setTokenURI(uint256,string)": {
        "params": {
          "_tokenURI": "the metadata to assign",
          "tokenId": "the target token"
        }
      },
      "supportsInterface(bytes4)": {
        "details": "See {IERC165-supportsInterface}.     * Time complexity O(1), guaranteed to always use less than 30 000 gas."
      },
      "symbol()": {
        "details": "See {IERC721Metadata-symbol}."
      },
      "tokenByIndex(uint256)": {
        "details": "See {IERC721Enumerable-tokenByIndex}."
      },
      "tokenOfOwnerByIndex(address,uint256)": {
        "details": "See {IERC721Enumerable-tokenOfOwnerByIndex}."
      },
      "tokenURI(uint256)": {
        "details": "See {IERC721Metadata-tokenURI}."
      },
      "totalSupply()": {
        "details": "See {IERC721Enumerable-totalSupply}."
      },
      "transferFrom(address,address,uint256)": {
        "details": "See {IERC721-transferFrom}."
      },
      "transferOwnership(address)": {
        "details": "Transfers ownership of the contract to a new account (`newOwner`). Can only be called by the current owner."
      },
      "viewEncSecret(uint256)": {
        "params": {
          "tokenId": "target token"
        },
        "returns": {
          "_0": "secret as a string"
        }
      },
      "viewSecretHash(uint256)": {
        "params": {
          "batchId": "target batch"
        },
        "returns": {
          "_0": "hash as a string"
        }
      }
    },
    "title": "ERC721 implementation of NFTcrypt ERC721 tokens with ncrypted secret"
  },
  "userdoc": {
    "methods": {
      "NewToBatch(uint256,uint256)": {
        "notice": "Handles issance of tokens to a new batch or to and existing batch"
      },
      "batchSize(uint256)": {
        "notice": "Returns the number of tokens in a given batch"
      },
      "constructor": "Sets up ERC721 naming and transfers contract ownership",
      "getPrice(uint256)": {
        "notice": "Returns the price of a given token"
      },
      "newBatchWithURI(uint256,string)": {
        "notice": "Issues a new batch and assigns URI (metadata)"
      },
      "purchase(uint256)": {
        "notice": "Buy a token"
      },
      "setBatchPrice(uint256,uint256)": {
        "notice": "Sets the token price for the whole batch and puts it up for sale"
      },
      "setBatchTokenURI(uint256,string)": {
        "notice": "Sets token URI (metadata) for the whole batch"
      },
      "setEncSecret(uint256,string)": {
        "notice": "Saves encrypted secret (contract owner releases the secret encrypted with token holder's encr. key)"
      },
      "setPrice(uint256,uint256)": {
        "notice": "Sets the token price for a token and puts it up for sale"
      },
      "setSecretHash(uint256,string)": {
        "notice": "Saves hash of the decrypted secret for the whole batch"
      },
      "setTokenURI(uint256,string)": {
        "notice": "Sets token URI (metadata) for a token"
      },
      "viewEncSecret(uint256)": {
        "notice": "Returns the secret of a token"
      },
      "viewSecretHash(uint256)": {
        "notice": "Returns the secret hash of a batch"
      }
    },
    "notice": "contract handles issuance of NFTs, their setup, sale, and secret transmissiontransfers are disabled via"
  }
}