{
  "contractName": "Factory",
  "abi": [
    {
      "anonymous": false,
      "inputs": [
        {
          "indexed": false,
          "internalType": "address",
          "name": "sender",
          "type": "address"
        },
        {
          "indexed": false,
          "internalType": "string",
          "name": "arg",
          "type": "string"
        },
        {
          "indexed": false,
          "internalType": "address",
          "name": "created",
          "type": "address"
        }
      ],
      "name": "LogCreatedChild",
      "type": "event"
    },
    {
      "inputs": [
        {
          "internalType": "string",
          "name": "arg",
          "type": "string"
        }
      ],
      "name": "createChild",
      "outputs": [],
      "stateMutability": "payable",
      "type": "function"
    }
  ],
  "bytecode": "0x608060405234801561001057600080fd5b506106ef806100206000396000f3fe60806040526004361061001e5760003560e01c8063afb05b3914610023575b600080fd5b6100dc6004803603602081101561003957600080fd5b810190808035906020019064010000000081111561005657600080fd5b82018360208201111561006857600080fd5b8035906020019184600183028401116401000000008311171561008a57600080fd5b91908080601f016020809104026020016040519081016040528093929190818152602001838380828437600081840152601f19601f8201169050808301925050505050505091929192905050506100de565b005b600034826040516100ee90610285565b8080602001828103825283818151815260200191508051906020019080838360005b8381101561012b578082015181840152602081019050610110565b50505050905090810190601f1680156101585780820380516001836020036101000a031916815260200191505b50925050506040518091039082f090508015801561017a573d6000803e3d6000fd5b5090507fa926387012a6b8ded629c00a8d12a0ae9971c0675fb4e88d0101437998d88221338383604051808473ffffffffffffffffffffffffffffffffffffffff1673ffffffffffffffffffffffffffffffffffffffff168152602001806020018373ffffffffffffffffffffffffffffffffffffffff1673ffffffffffffffffffffffffffffffffffffffff168152602001828103825284818151815260200191508051906020019080838360005b8381101561024557808201518184015260208101905061022a565b50505050905090810190601f1680156102725780820380516001836020036101000a031916815260200191505b5094505050505060405180910390a15050565b610427806102938339019056fe60806040526040516104273803806104278339818101604052602081101561002657600080fd5b810190808051604051939291908464010000000082111561004657600080fd5b8382019150602082018581111561005c57600080fd5b825186600182028301116401000000008211171561007957600080fd5b8083526020830192505050908051906020019080838360005b838110156100ad578082015181840152602081019050610092565b50505050905090810190601f1680156100da5780820380516001836020036101000a031916815260200191505b5060405250505080600090805190602001906100f79291906101ec565b507fabf78f3932a88b18604fb36338724ae7d70beaeb22287e040b09911e7870d4a9336000604051808373ffffffffffffffffffffffffffffffffffffffff1673ffffffffffffffffffffffffffffffffffffffff168152602001806020018281038252838181546001816001161561010002031660029004815260200191508054600181600116156101000203166002900480156101d75780601f106101ac576101008083540402835291602001916101d7565b820191906000526020600020905b8154815290600101906020018083116101ba57829003601f168201915b5050935050505060405180910390a150610291565b828054600181600116156101000203166002900490600052602060002090601f016020900481019282601f1061022d57805160ff191683800117855561025b565b8280016001018555821561025b579182015b8281111561025a57825182559160200191906001019061023f565b5b509050610268919061026c565b5090565b61028e91905b8082111561028a576000816000905550600101610272565b5090565b90565b610187806102a06000396000f3fe608060405234801561001057600080fd5b506004361061002b5760003560e01c80630dbe671f14610030575b600080fd5b6100386100b3565b6040518080602001828103825283818151815260200191508051906020019080838360005b8381101561007857808201518184015260208101905061005d565b50505050905090810190601f1680156100a55780820380516001836020036101000a031916815260200191505b509250505060405180910390f35b60008054600181600116156101000203166002900480601f0160208091040260200160405190810160405280929190818152602001828054600181600116156101000203166002900480156101495780601f1061011e57610100808354040283529160200191610149565b820191906000526020600020905b81548152906001019060200180831161012c57829003601f168201915b50505050508156fea264697066735822122064a0b66aa8d9e5e356f30dd383855bf72126f696fdade9bf5726fe112930f2e564736f6c63430006020033a264697066735822122007f925135485f8f5801b79cb244d63a2d1ce2ec4a4bc49329b325ca49e5b08ba64736f6c63430006020033",
  "source": "pragma solidity  >=  0.4.25;\n\ncontract Child {\n\n   string public a;\n\n   event LogCreatedBy(address creator, string arg);\n\n   constructor (string memory arg) public payable {\n       a = arg;\n       emit LogCreatedBy(msg.sender, a);\n   }\n}\n\ncontract Factory {\n\n    event LogCreatedChild(address sender, string arg, address created);\n\n    function createChild(string memory arg) public payable {\n        address issueContract = address((new Child).value(msg.value)(arg));\n        emit LogCreatedChild(msg.sender, arg, issueContract);\n    }\n}\n",
  "sourcePath": "/Users/au642254/Disk Google/eth_ad/dev/nftcrypt/truffle_repo/nftcrypt/contracts-truffle/contracts/NFTcrypt.sol",
  "compiler": {
    "name": "solc",
    "version": "0.6.2+commit.bacdbe57.Emscripten.clang"
  },
  "schemaVersion": "3.1.0",
  "updatedAt": "2020-12-01T13:52:24.642Z",
  "devdoc": {
    "methods": {}
  },
  "userdoc": {
    "methods": {}
  }
}