{
  "contractName": "PayLib",
  "abi": [
    {
      "anonymous": false,
      "inputs": [
        {
          "indexed": true,
          "internalType": "address",
          "name": "previousOwner",
          "type": "address"
        },
        {
          "indexed": true,
          "internalType": "address",
          "name": "newOwner",
          "type": "address"
        }
      ],
      "name": "OwnershipTransferred",
      "type": "event"
    },
    {
      "inputs": [
        {
          "internalType": "uint256",
          "name": "",
          "type": "uint256"
        }
      ],
      "name": "forSale",
      "outputs": [
        {
          "internalType": "bool",
          "name": "",
          "type": "bool"
        }
      ],
      "stateMutability": "view",
      "type": "function"
    },
    {
      "inputs": [
        {
          "internalType": "uint256",
          "name": "",
          "type": "uint256"
        }
      ],
      "name": "origPrice",
      "outputs": [
        {
          "internalType": "uint256",
          "name": "",
          "type": "uint256"
        }
      ],
      "stateMutability": "view",
      "type": "function"
    },
    {
      "inputs": [],
      "name": "owner",
      "outputs": [
        {
          "internalType": "address",
          "name": "",
          "type": "address"
        }
      ],
      "stateMutability": "view",
      "type": "function"
    },
    {
      "inputs": [],
      "name": "renounceOwnership",
      "outputs": [],
      "stateMutability": "nonpayable",
      "type": "function"
    },
    {
      "inputs": [
        {
          "internalType": "address",
          "name": "newOwner",
          "type": "address"
        }
      ],
      "name": "transferOwnership",
      "outputs": [],
      "stateMutability": "nonpayable",
      "type": "function"
    }
  ],
  "bytecode": "0x608060405260006100146100b760201b60201c565b9050806000806101000a81548173ffffffffffffffffffffffffffffffffffffffff021916908373ffffffffffffffffffffffffffffffffffffffff1602179055508073ffffffffffffffffffffffffffffffffffffffff16600073ffffffffffffffffffffffffffffffffffffffff167f8be0079c531659141344cd1fd0a4f28419497f9722a3daafe3b4186f6b6457e060405160405180910390a3506100bf565b600033905090565b6105d6806100ce6000396000f3fe608060405234801561001057600080fd5b50600436106100575760003560e01c80632831f2f41461005c578063715018a6146100a257806377a263d3146100ac5780638da5cb5b146100ee578063f2fde38b14610138575b600080fd5b6100886004803603602081101561007257600080fd5b810190808035906020019092919050505061017c565b604051808215151515815260200191505060405180910390f35b6100aa61019c565b005b6100d8600480360360208110156100c257600080fd5b8101908080359060200190929190505050610324565b6040518082815260200191505060405180910390f35b6100f661033c565b604051808273ffffffffffffffffffffffffffffffffffffffff1673ffffffffffffffffffffffffffffffffffffffff16815260200191505060405180910390f35b61017a6004803603602081101561014e57600080fd5b81019080803573ffffffffffffffffffffffffffffffffffffffff169060200190929190505050610365565b005b60046020528060005260406000206000915054906101000a900460ff1681565b6101a4610572565b73ffffffffffffffffffffffffffffffffffffffff166000809054906101000a900473ffffffffffffffffffffffffffffffffffffffff1673ffffffffffffffffffffffffffffffffffffffff1614610265576040517f08c379a00000000000000000000000000000000000000000000000000000000081526004018080602001828103825260208152602001807f4f776e61626c653a2063616c6c6572206973206e6f7420746865206f776e657281525060200191505060405180910390fd5b600073ffffffffffffffffffffffffffffffffffffffff166000809054906101000a900473ffffffffffffffffffffffffffffffffffffffff1673ffffffffffffffffffffffffffffffffffffffff167f8be0079c531659141344cd1fd0a4f28419497f9722a3daafe3b4186f6b6457e060405160405180910390a360008060006101000a81548173ffffffffffffffffffffffffffffffffffffffff021916908373ffffffffffffffffffffffffffffffffffffffff160217905550565b60036020528060005260406000206000915090505481565b60008060009054906101000a900473ffffffffffffffffffffffffffffffffffffffff16905090565b61036d610572565b73ffffffffffffffffffffffffffffffffffffffff166000809054906101000a900473ffffffffffffffffffffffffffffffffffffffff1673ffffffffffffffffffffffffffffffffffffffff161461042e576040517f08c379a00000000000000000000000000000000000000000000000000000000081526004018080602001828103825260208152602001807f4f776e61626c653a2063616c6c6572206973206e6f7420746865206f776e657281525060200191505060405180910390fd5b600073ffffffffffffffffffffffffffffffffffffffff168173ffffffffffffffffffffffffffffffffffffffff1614156104b4576040517f08c379a000000000000000000000000000000000000000000000000000000000815260040180806020018281038252602681526020018061057b6026913960400191505060405180910390fd5b8073ffffffffffffffffffffffffffffffffffffffff166000809054906101000a900473ffffffffffffffffffffffffffffffffffffffff1673ffffffffffffffffffffffffffffffffffffffff167f8be0079c531659141344cd1fd0a4f28419497f9722a3daafe3b4186f6b6457e060405160405180910390a3806000806101000a81548173ffffffffffffffffffffffffffffffffffffffff021916908373ffffffffffffffffffffffffffffffffffffffff16021790555050565b60003390509056fe4f776e61626c653a206e6577206f776e657220697320746865207a65726f2061646472657373a2646970667358221220919ad85bfdcd0ef29f41d456600be87150b6f5b405d3832d92ce8df69dd65c7d64736f6c63430006020033",
  "source": "pragma solidity  >=  0.4.25;\n\nimport \"@openzeppelin/contracts/token/ERC721/ERC721.sol\";\nimport \"@openzeppelin/contracts/access/Ownable.sol\";\nimport \"@openzeppelin/contracts/utils/EnumerableSet.sol\";\n\ncontract PayLib is Ownable {\n  using EnumerableSet for EnumerableSet.UintSet;\n\n  mapping (uint256 => address) private purchased;\n  mapping (address => EnumerableSet.UintSet) private _boughtTokens;\n  mapping (uint256 => uint256) public origPrice;\n  mapping (uint256 => bool) public forSale;\n\n\n\n\n}\n\ncontract NFTcrypt is Ownable {\n  using EnumerableSet for EnumerableSet.AddressSet;\n\n  address public registry;\n  function setRegistry(address reg) public onlyOwner {\n     registry = reg;\n  }\n\n    event LogCreatedChild(address sender, string arg, string ticker, address created, address newOwner);\n    mapping (address => EnumerableSet.AddressSet) private _deployedSet;\n\n\n\n    function createChild(string memory name, string memory abb, string memory ownerNm) public payable {\n        address newOwner = msg.sender;\n        address issueContract = address((new Child).value(msg.value)(name, abb, newOwner, registry, ownerNm));\n        emit LogCreatedChild(msg.sender, name, abb, issueContract, newOwner);\n        _deployedSet[msg.sender].add(issueContract);\n    }\n    function deployedAddress(address owner, uint256 id) public view returns (address) {\n      return _deployedSet[owner].at(id);\n    }\n}\n\n\n\ncontract Child is ERC721,Ownable, PayLib {\n\n   event LogCreatedBy(address creator, string name, string ticker);\n   event LogEncKeyRead(address target, bytes key, bool status);\n\n   address public encKeyReg;\n   string public ownerName;\n\n   constructor (string memory name, string memory abb, address newOwner, address registry, string memory ownerNm) ERC721(name, abb) public payable {\n        transferOwnership(newOwner);\n        encKeyReg = registry;\n        ownerName = ownerNm;\n        emit LogCreatedBy(msg.sender, name, abb);\n   }\n\n   uint256 maxIndex = 0;\n   uint256 lastBatch = 0;\n\n   mapping (uint256 => uint256) public batchReg;\n   mapping (uint256 => EnumerableSet.UintSet) _batchSet;\n   mapping (uint256 => uint256) public batchMax;\n   mapping (uint256 => string) private _encrSecret;\n   mapping (uint256 => string) private _secretHash;\n  // mapping (uint256 => bool) private _batchIdentical;\n\n\n   //function getOwnerName() public view returns (string memory) {\n  //   return ownerName;\n  // }\n   function setOwnerName(string memory ownNme) public onlyOwner {\n     ownerName=ownNme;\n   }\n\n   function _issueNFT(uint256 number, uint256 batch) internal {\n     uint256 i =1;\n     while (i<= number) {\n       maxIndex++;\n       _safeMint(msg.sender,maxIndex);\n\n       batchReg[maxIndex]=batch;\n       _batchSet[batch].add(maxIndex);\n        i++;\n     }\n   }\n\n   function createNewBatch(uint256 numberOfNft) onlyOwner public  {\n     uint256 batchId = lastBatch+1;\n     _issueNFT(numberOfNft,batchId);\n     lastBatch = batchId;\n     batchMax[batchId] = numberOfNft;\n   }\n\n   function batchExists(uint256 batchId) public view returns (bool) {\n     if (lastBatch>=batchId) {\n       return true;\n     } else {\n       return false;\n     }\n   }\n\n   function addToBatch(uint256 numberOfNft, uint256 batchId) onlyOwner public  {\n     require(batchExists(batchId), \"ERC721: operator query for nonexistent batch\");\n     _issueNFT(numberOfNft,batchId);\n     batchMax[batchId] = batchMax[batchId] + numberOfNft;\n   }\n\n   function batchSize(uint256 batchId) public view returns (uint256)  {\n     require(batchExists(batchId), \"ERC721: operator query for nonexistent batch\");\n     uint256 size = batchMax[batchId];\n     return size;\n   }\n\n   function setBatchTokenURI(uint256 batchId, string memory _tokenURI) onlyOwner public  {\n    uint256 size = batchSize(batchId);\n    uint256 _i = 0;\n    while (_i<size) {\n      _setTokenURI(_batchSet[batchId].at(_i), _tokenURI);\n      _i++;\n    }\n   }\n\n   function setTokenURI(uint256 tokenId, string memory _tokenURI) public onlyOwner {\n     _setTokenURI(tokenId,_tokenURI);\n   }\n\n   function getBatch(uint256 tokenId) public view returns (uint256) {\n     return batchReg[tokenId];\n\n   }\n\n\n\n   function setEncSecret(uint256 tokenId, string memory secret) public onlyOwner {\n     _encrSecret[tokenId] = secret;\n   }\n   function setSecretHash(uint256 tokenId, string memory hashed) public onlyOwner {\n     _secretHash[tokenId] = hashed;\n   }\n\n   function viewEncSecret(uint256 tokenId) public view returns (string memory) {\n     return _encrSecret[tokenId];\n   }\n   function viewSecretHash(uint256 tokenId) public view returns (string memory) {\n     return _secretHash[tokenId];\n   }\n\n\n\n/**\nfunction keyReg() public view returns (address) {\n  return encKeyReg;\n}\n\n\nfunction BatchApply(uint256 batchId, string memory _text, bytes4 methodId) internal  {\n uint256 size = batchSize(batchId);\n uint256 _i = 0;\n while (_i<size) {\n   address(this).call(abi.encode(methodId, _text,_batchSet[batchId].at(_i)));\n   _i++;\n }\n}\n\nfunction setBatchHash(uint256 batchId, string memory _hashed) public onlyOwner {\n  BatchApply(batchId,  _hashed, bytes4(keccak256(\"setSecretHash(uint256,string)\")));\n}\n\n\n   function readEncKey(address _var) public returns (bytes memory) {\n     bool status;\n     bytes memory result;\n     address _reg = keyReg();\n     (status,result) = _reg.delegatecall(abi.encodePacked(bytes4(keccak256(\"getKey(address)\")), _var));\n     emit LogEncKeyRead( _var ,  result, status);\n     return result;\n\n    }\n\n**/\n\n\n}\n",
  "sourcePath": "/Users/au642254/Disk Google/eth_ad/dev/nftcrypt/truffle_repo/nftcrypt/contracts-truffle/contracts/NFTcrypt.sol",
  "compiler": {
    "name": "solc",
    "version": "0.6.2+commit.bacdbe57.Emscripten.clang"
  },
  "schemaVersion": "3.1.0",
  "updatedAt": "2020-12-03T07:38:09.008Z",
  "devdoc": {
    "methods": {
      "owner()": {
        "details": "Returns the address of the current owner."
      },
      "renounceOwnership()": {
        "details": "Leaves the contract without owner. It will not be possible to call `onlyOwner` functions anymore. Can only be called by the current owner.     * NOTE: Renouncing ownership will leave the contract without an owner, thereby removing any functionality that is only available to the owner."
      },
      "transferOwnership(address)": {
        "details": "Transfers ownership of the contract to a new account (`newOwner`). Can only be called by the current owner."
      }
    }
  },
  "userdoc": {
    "methods": {}
  }
}