{
  "contractName": "SimpleSave",
  "abi": [
    {
      "inputs": [
        {
          "internalType": "string",
          "name": "encSecret",
          "type": "string"
        },
        {
          "internalType": "address",
          "name": "contractAdd",
          "type": "address"
        },
        {
          "internalType": "uint256",
          "name": "batchId",
          "type": "uint256"
        }
      ],
      "name": "setEncSecret",
      "outputs": [],
      "stateMutability": "nonpayable",
      "type": "function"
    },
    {
      "inputs": [
        {
          "internalType": "address",
          "name": "contractAdd",
          "type": "address"
        },
        {
          "internalType": "uint256",
          "name": "batchId",
          "type": "uint256"
        }
      ],
      "name": "getKey",
      "outputs": [
        {
          "internalType": "string",
          "name": "",
          "type": "string"
        }
      ],
      "stateMutability": "view",
      "type": "function"
    }
  ],
  "bytecode": "0x608060405234801561001057600080fd5b5061045d806100206000396000f3fe608060405234801561001057600080fd5b50600436106100365760003560e01c80633aa15c791461003b578063a369f72e14610120575b600080fd5b61011e6004803603606081101561005157600080fd5b810190808035906020019064010000000081111561006e57600080fd5b82018360208201111561008057600080fd5b803590602001918460018302840111640100000000831117156100a257600080fd5b91908080601f016020809104026020016040519081016040528093929190818152602001838380828437600081840152601f19601f820116905080830192505050505050509192919290803573ffffffffffffffffffffffffffffffffffffffff169060200190929190803590602001909291905050506101e7565b005b61016c6004803603604081101561013657600080fd5b81019080803573ffffffffffffffffffffffffffffffffffffffff16906020019092919080359060200190929190505050610273565b6040518080602001828103825283818151815260200191508051906020019080838360005b838110156101ac578082015181840152602081019050610191565b50505050905090810190601f1680156101d95780820380516001836020036101000a031916815260200191505b509250505060405180910390f35b60008282604051602001808373ffffffffffffffffffffffffffffffffffffffff1673ffffffffffffffffffffffffffffffffffffffff1681526020018281526020019250505060405160208183030381529060405280519060200120905083600080838152602001908152602001600020908051906020019061026c929190610382565b5050505050565b60606000808484604051602001808373ffffffffffffffffffffffffffffffffffffffff1673ffffffffffffffffffffffffffffffffffffffff168152602001828152602001925050506040516020818303038152906040528051906020012081526020019081526020016000208054600181600116156101000203166002900480601f0160208091040260200160405190810160405280929190818152602001828054600181600116156101000203166002900480156103755780601f1061034a57610100808354040283529160200191610375565b820191906000526020600020905b81548152906001019060200180831161035857829003601f168201915b5050505050905092915050565b828054600181600116156101000203166002900490600052602060002090601f016020900481019282601f106103c357805160ff19168380011785556103f1565b828001600101855582156103f1579182015b828111156103f05782518255916020019190600101906103d5565b5b5090506103fe9190610402565b5090565b61042491905b80821115610420576000816000905550600101610408565b5090565b9056fea2646970667358221220574540fec67a66d9b0044ab152067888b3f9638980ab0ae955a04ffa88a8954464736f6c63430006020033",
  "source": "pragma solidity >= 0.5.0 < 0.7.0;\n\nimport \"@openzeppelin/contracts/utils/EnumerableSet.sol\";\n\n/// @title SimpleSave\n/// @author Martin Strobl\n/// @notice This contract stores encrypted secrets (by the NFRTcrypt ERC721 owner) for later retrieval and reencryption for buyers\ncontract SimpleSave {\n\n  /// mapping from contract and batch to encryption key\n  mapping (bytes32 => string) private encOwnSecret;\n\n  /// @notice Saves user's encryption key to the registry\n  /// @dev keccak256 generates a unique key for the combination of contract and batch id\n  /// @param encSecret encryped secret\n  /// @param contractAdd address of the contract\n  /// @param batchId target batch\n  function setEncSecret(string memory encSecret, address contractAdd, uint256 batchId) public {\n      bytes32 identity = keccak256(abi.encode(contractAdd, batchId));\n      encOwnSecret[identity] = encSecret;\n  }\n\n  /// @notice Retrieves the encrypted secret for a given batch and contract\n  /// @param contractAdd target contract address\n  /// @param batchId target batch\n  /// @return encryption key as a string\n  function getKey(address contractAdd, uint256 batchId) public view returns (string memory) {\n      return encOwnSecret[keccak256(abi.encode(contractAdd, batchId))];\n  }\n\n}\n",
  "sourcePath": "/Users/au642254/Disk Google/eth_ad/dev/nftcrypt/truffle_repo/nftcrypt/contracts-truffle/contracts/SimpleSave.sol",
  "compiler": {
    "name": "solc",
    "version": "0.6.2+commit.bacdbe57.Emscripten.clang"
  },
  "schemaVersion": "3.1.0",
  "updatedAt": "2020-12-09T17:27:03.092Z",
  "devdoc": {
    "author": "Martin Strobl",
    "methods": {
      "getKey(address,uint256)": {
        "params": {
          "batchId": "target batch",
          "contractAdd": "target contract address"
        },
        "returns": {
          "_0": "encryption key as a string"
        }
      },
      "setEncSecret(string,address,uint256)": {
        "details": "keccak256 generates a unique key for the combination of contract and batch id",
        "params": {
          "batchId": "target batch",
          "contractAdd": "address of the contract",
          "encSecret": "encryped secret"
        }
      }
    },
    "title": "SimpleSave"
  },
  "userdoc": {
    "methods": {
      "getKey(address,uint256)": {
        "notice": "Retrieves the encrypted secret for a given batch and contract"
      },
      "setEncSecret(string,address,uint256)": {
        "notice": "Saves user's encryption key to the registry"
      }
    },
    "notice": "This contract stores encrypted secrets (by the NFRTcrypt ERC721 owner) for later retrieval and reencryption for buyers"
  }
}