{
  "contractName": "EncKeyRegistry",
  "abi": [
    {
      "inputs": [
        {
          "internalType": "address",
          "name": "",
          "type": "address"
        }
      ],
      "name": "encKey",
      "outputs": [
        {
          "internalType": "string",
          "name": "",
          "type": "string"
        }
      ],
      "stateMutability": "view",
      "type": "function",
      "constant": true
    },
    {
      "inputs": [
        {
          "internalType": "string",
          "name": "key",
          "type": "string"
        }
      ],
      "name": "setKey",
      "outputs": [],
      "stateMutability": "nonpayable",
      "type": "function"
    },
    {
      "inputs": [
        {
          "internalType": "address",
          "name": "_address",
          "type": "address"
        }
      ],
      "name": "getKey",
      "outputs": [
        {
          "internalType": "string",
          "name": "",
          "type": "string"
        }
      ],
      "stateMutability": "view",
      "type": "function",
      "constant": true
    },
    {
      "inputs": [],
      "name": "deleteKey",
      "outputs": [],
      "stateMutability": "nonpayable",
      "type": "function"
    }
  ],
  "bytecode": "0x608060405234801561001057600080fd5b506105e5806100206000396000f3fe608060405234801561001057600080fd5b506004361061004c5760003560e01c806355a7f3371461005157806393790f441461010e578063af42d106146101cb578063e8510fc914610286575b600080fd5b6100936004803603602081101561006757600080fd5b81019080803573ffffffffffffffffffffffffffffffffffffffff169060200190929190505050610290565b6040518080602001828103825283818151815260200191508051906020019080838360005b838110156100d35780820151818401526020810190506100b8565b50505050905090810190601f1680156101005780820380516001836020036101000a031916815260200191505b509250505060405180910390f35b6101506004803603602081101561012457600080fd5b81019080803573ffffffffffffffffffffffffffffffffffffffff169060200190929190505050610340565b6040518080602001828103825283818151815260200191508051906020019080838360005b83811015610190578082015181840152602081019050610175565b50505050905090810190601f1680156101bd5780820380516001836020036101000a031916815260200191505b509250505060405180910390f35b610284600480360360208110156101e157600080fd5b81019080803590602001906401000000008111156101fe57600080fd5b82018360208201111561021057600080fd5b8035906020019184600183028401116401000000008311171561023257600080fd5b91908080601f016020809104026020016040519081016040528093929190818152602001838380828437600081840152601f19601f820116905080830192505050505050509192919290505050610420565b005b61028e610476565b005b60006020528060005260406000206000915090508054600181600116156101000203166002900480601f0160208091040260200160405190810160405280929190818152602001828054600181600116156101000203166002900480156103385780601f1061030d57610100808354040283529160200191610338565b820191906000526020600020905b81548152906001019060200180831161031b57829003601f168201915b505050505081565b60606000808373ffffffffffffffffffffffffffffffffffffffff1673ffffffffffffffffffffffffffffffffffffffff1681526020019081526020016000208054600181600116156101000203166002900480601f0160208091040260200160405190810160405280929190818152602001828054600181600116156101000203166002900480156104145780601f106103e957610100808354040283529160200191610414565b820191906000526020600020905b8154815290600101906020018083116103f757829003601f168201915b50505050509050919050565b806000803373ffffffffffffffffffffffffffffffffffffffff1673ffffffffffffffffffffffffffffffffffffffff16815260200190815260200160002090805190602001906104729291906104c2565b5050565b6000803373ffffffffffffffffffffffffffffffffffffffff1673ffffffffffffffffffffffffffffffffffffffff16815260200190815260200160002060006104c09190610542565b565b828054600181600116156101000203166002900490600052602060002090601f016020900481019282601f1061050357805160ff1916838001178555610531565b82800160010185558215610531579182015b82811115610530578251825591602001919060010190610515565b5b50905061053e919061058a565b5090565b50805460018160011615610100020316600290046000825580601f106105685750610587565b601f016020900490600052602060002090810190610586919061058a565b5b50565b6105ac91905b808211156105a8576000816000905550600101610590565b5090565b9056fea264697066735822122061fd05a08496baafd07dfb28d0a62de0685caca1e01537d0b37f492462428fb664736f6c63430006020033",
  "source": "pragma solidity >= 0.5.0 < 0.7.0;\n\n\n/// @title Encryption key registry\n/// @author Martin Strobl\n/// @notice Stores user's public encription key generated by Metamask, the publicity of the key does not pose any security risk to the wallet/funds\ncontract EncKeyRegistry {\n    /// mapping from address to encryption key\n    mapping(address => string) public encKey;\n\n    /// @notice Saves user's encryption key to the registry\n    /// @param key encryption key to be stored as string\n    function setKey(string memory key) public {\n        encKey[msg.sender] = key;\n    }\n\n    /// @notice Retrieves the key of a given address\n    /// @param _address target address\n    /// @return encryption key as a string\n    function getKey(address _address) public view returns (string memory) {\n        return encKey[_address];\n    }\n\n    /// @notice Deletes user's encryption key from the registry\n    function deleteKey() public {\n        delete encKey[msg.sender];\n    }\n}\n",
  "sourcePath": "/Users/au642254/Disk Google/eth_ad/dev/nftcrypt/truffle_repo/nftcrypt/nftcrypt-truffle-project/contracts/EncKeyRegistry.sol",
  "compiler": {
    "name": "solc",
    "version": "0.6.2+commit.bacdbe57.Emscripten.clang"
  },
  "schemaVersion": "3.1.0",
  "updatedAt": "2020-12-18T09:55:49.137Z",
  "networkType": "ethereum",
  "devdoc": {
    "author": "Martin Strobl",
    "methods": {
      "getKey(address)": {
        "params": {
          "_address": "target address"
        },
        "returns": {
          "_0": "encryption key as a string"
        }
      },
      "setKey(string)": {
        "params": {
          "key": "encryption key to be stored as string"
        }
      }
    },
    "title": "Encryption key registry"
  },
  "userdoc": {
    "methods": {
      "deleteKey()": {
        "notice": "Deletes user's encryption key from the registry"
      },
      "getKey(address)": {
        "notice": "Retrieves the key of a given address"
      },
      "setKey(string)": {
        "notice": "Saves user's encryption key to the registry"
      }
    },
    "notice": "Stores user's public encription key generated by Metamask, the publicity of the key does not pose any security risk to the wallet/funds"
  }
}