{
  "contractName": "NFTcryptTools",
  "abi": [
    {
      "anonymous": false,
      "inputs": [
        {
          "indexed": false,
          "internalType": "uint256",
          "name": "batchId",
          "type": "uint256"
        },
        {
          "indexed": false,
          "internalType": "string",
          "name": "hashed",
          "type": "string"
        }
      ],
      "name": "LogNewHash",
      "type": "event"
    },
    {
      "anonymous": false,
      "inputs": [
        {
          "indexed": false,
          "internalType": "uint256",
          "name": "tokenId",
          "type": "uint256"
        },
        {
          "indexed": false,
          "internalType": "string",
          "name": "secret",
          "type": "string"
        }
      ],
      "name": "LogNewSecret",
      "type": "event"
    },
    {
      "anonymous": false,
      "inputs": [
        {
          "indexed": false,
          "internalType": "uint256",
          "name": "tokenId",
          "type": "uint256"
        },
        {
          "indexed": false,
          "internalType": "uint256",
          "name": "price",
          "type": "uint256"
        }
      ],
      "name": "LogPriceSet",
      "type": "event"
    },
    {
      "inputs": [
        {
          "internalType": "uint256",
          "name": "",
          "type": "uint256"
        }
      ],
      "name": "_encrSecret",
      "outputs": [
        {
          "internalType": "string",
          "name": "",
          "type": "string"
        }
      ],
      "stateMutability": "view",
      "type": "function"
    },
    {
      "inputs": [
        {
          "internalType": "uint256",
          "name": "",
          "type": "uint256"
        }
      ],
      "name": "_secretHash",
      "outputs": [
        {
          "internalType": "string",
          "name": "",
          "type": "string"
        }
      ],
      "stateMutability": "view",
      "type": "function"
    },
    {
      "inputs": [
        {
          "internalType": "uint256",
          "name": "",
          "type": "uint256"
        }
      ],
      "name": "batchMax",
      "outputs": [
        {
          "internalType": "uint256",
          "name": "",
          "type": "uint256"
        }
      ],
      "stateMutability": "view",
      "type": "function"
    },
    {
      "inputs": [
        {
          "internalType": "uint256",
          "name": "",
          "type": "uint256"
        }
      ],
      "name": "forSale",
      "outputs": [
        {
          "internalType": "bool",
          "name": "",
          "type": "bool"
        }
      ],
      "stateMutability": "view",
      "type": "function"
    },
    {
      "inputs": [],
      "name": "lastBatch",
      "outputs": [
        {
          "internalType": "uint256",
          "name": "",
          "type": "uint256"
        }
      ],
      "stateMutability": "view",
      "type": "function"
    },
    {
      "inputs": [],
      "name": "maxIndex",
      "outputs": [
        {
          "internalType": "uint256",
          "name": "",
          "type": "uint256"
        }
      ],
      "stateMutability": "view",
      "type": "function"
    },
    {
      "inputs": [
        {
          "internalType": "uint256",
          "name": "",
          "type": "uint256"
        }
      ],
      "name": "origPrice",
      "outputs": [
        {
          "internalType": "uint256",
          "name": "",
          "type": "uint256"
        }
      ],
      "stateMutability": "view",
      "type": "function"
    },
    {
      "inputs": [],
      "name": "stopped",
      "outputs": [
        {
          "internalType": "bool",
          "name": "",
          "type": "bool"
        }
      ],
      "stateMutability": "view",
      "type": "function"
    },
    {
      "inputs": [
        {
          "internalType": "uint256",
          "name": "batchId",
          "type": "uint256"
        }
      ],
      "name": "batchSize",
      "outputs": [
        {
          "internalType": "uint256",
          "name": "",
          "type": "uint256"
        }
      ],
      "stateMutability": "view",
      "type": "function"
    },
    {
      "inputs": [
        {
          "internalType": "uint256",
          "name": "batchId",
          "type": "uint256"
        }
      ],
      "name": "viewSecretHash",
      "outputs": [
        {
          "internalType": "string",
          "name": "",
          "type": "string"
        }
      ],
      "stateMutability": "view",
      "type": "function"
    },
    {
      "inputs": [
        {
          "internalType": "uint256",
          "name": "tokenId",
          "type": "uint256"
        }
      ],
      "name": "viewEncSecret",
      "outputs": [
        {
          "internalType": "string",
          "name": "",
          "type": "string"
        }
      ],
      "stateMutability": "view",
      "type": "function"
    },
    {
      "inputs": [
        {
          "internalType": "uint256",
          "name": "tokenId",
          "type": "uint256"
        }
      ],
      "name": "getPrice",
      "outputs": [
        {
          "internalType": "uint256",
          "name": "",
          "type": "uint256"
        }
      ],
      "stateMutability": "view",
      "type": "function"
    }
  ],
  "bytecode": "0x6080604052600060065560006007556000600860006101000a81548160ff02191690831515021790555034801561003557600080fd5b506108e9806100456000396000f3fe608060405234801561001057600080fd5b50600436106100b45760003560e01c80638a7a018d116100715780638a7a018d1461024657806392d28404146102ed5780639461cbfc14610394578063a4636456146103d6578063b6fdfcde14610418578063e7572230146104bf576100b4565b80632831f2f4146100b95780632ca869bf146100ff57806348aa41081461011d57806375f12b211461013b57806377a263d31461015d578063867ad0331461019f575b600080fd5b6100e5600480360360208110156100cf57600080fd5b8101908080359060200190929190505050610501565b604051808215151515815260200191505060405180910390f35b610107610521565b6040518082815260200191505060405180910390f35b610125610527565b6040518082815260200191505060405180910390f35b61014361052d565b604051808215151515815260200191505060405180910390f35b6101896004803603602081101561017357600080fd5b8101908080359060200190929190505050610540565b6040518082815260200191505060405180910390f35b6101cb600480360360208110156101b557600080fd5b8101908080359060200190929190505050610558565b6040518080602001828103825283818151815260200191508051906020019080838360005b8381101561020b5780820151818401526020810190506101f0565b50505050905090810190601f1680156102385780820380516001836020036101000a031916815260200191505b509250505060405180910390f35b6102726004803603602081101561025c57600080fd5b810190808035906020019092919050505061060c565b6040518080602001828103825283818151815260200191508051906020019080838360005b838110156102b2578082015181840152602081019050610297565b50505050905090810190601f1680156102df5780820380516001836020036101000a031916815260200191505b509250505060405180910390f35b6103196004803603602081101561030357600080fd5b81019080803590602001909291905050506106c1565b6040518080602001828103825283818151815260200191508051906020019080838360005b8381101561035957808201518184015260208101905061033e565b50505050905090810190601f1680156103865780820380516001836020036101000a031916815260200191505b509250505060405180910390f35b6103c0600480360360208110156103aa57600080fd5b8101908080359060200190929190505050610771565b6040518082815260200191505060405180910390f35b610402600480360360208110156103ec57600080fd5b810190808035906020019092919050505061079d565b6040518082815260200191505060405180910390f35b6104446004803603602081101561042e57600080fd5b81019080803590602001909291905050506107b5565b6040518080602001828103825283818151815260200191508051906020019080838360005b83811015610484578082015181840152602081019050610469565b50505050905090810190601f1680156104b15780820380516001836020036101000a031916815260200191505b509250505060405180910390f35b6104eb600480360360208110156104d557600080fd5b8101908080359060200190929190505050610865565b6040518082815260200191505060405180910390f35b60036020528060005260406000206000915054906101000a900460ff1681565b60065481565b60075481565b600860009054906101000a900460ff1681565b60026020528060005260406000206000915090505481565b60606000808381526020019081526020016000208054600181600116156101000203166002900480601f0160208091040260200160405190810160405280929190818152602001828054600181600116156101000203166002900480156106005780601f106105d557610100808354040283529160200191610600565b820191906000526020600020905b8154815290600101906020018083116105e357829003601f168201915b50505050509050919050565b6060600160008381526020019081526020016000208054600181600116156101000203166002900480601f0160208091040260200160405190810160405280929190818152602001828054600181600116156101000203166002900480156106b55780601f1061068a576101008083540402835291602001916106b5565b820191906000526020600020905b81548152906001019060200180831161069857829003601f168201915b50505050509050919050565b60006020528060005260406000206000915090508054600181600116156101000203166002900480601f0160208091040260200160405190810160405280929190818152602001828054600181600116156101000203166002900480156107695780601f1061073e57610100808354040283529160200191610769565b820191906000526020600020905b81548152906001019060200180831161074c57829003601f168201915b505050505081565b600081600754101561078257600080fd5b60056000838152602001908152602001600020549050919050565b60056020528060005260406000206000915090505481565b60016020528060005260406000206000915090508054600181600116156101000203166002900480601f01602080910402602001604051908101604052809291908181526020018280546001816001161561010002031660029004801561085d5780601f106108325761010080835404028352916020019161085d565b820191906000526020600020905b81548152906001019060200180831161084057829003601f168201915b505050505081565b6000600115156003600084815260200190815260200160002060009054906101000a900460ff1615151461089857600080fd5b6002600083815260200190815260200160002054905091905056fea2646970667358221220ffbf73dc6430f5777524ba0ba1e84c5d8d143f4660ec56157fdacb982934d76664736f6c63430006020033",
  "source": "pragma solidity >=0.6.0 <0.8.0;\nimport \"@openzeppelin/contracts/math/SafeMath.sol\";\nimport \"@openzeppelin/contracts/utils/Address.sol\";\nimport \"@openzeppelin/contracts/utils/EnumerableSet.sol\";\nimport \"@openzeppelin/contracts/utils/EnumerableMap.sol\";\nimport \"@openzeppelin/contracts/utils/Strings.sol\";\n\n/// @title NFTcryptTools - stores key mappings and handling functions\n/// @author Martin Strobl\n/// @notice This contract serves as a codebase for the Child ERC721 contract, all the internal functions are callable from there by the contract owner; all functions either internal or public view\ncontract NFTcryptTools {\n  using SafeMath for uint256;\n  using Address for address;\n  using EnumerableSet for EnumerableSet.UintSet;\n  using EnumerableMap for EnumerableMap.UintToAddressMap;\n  using Strings for uint256;\n\n  // mapping from batchId to hashed secret\n  mapping (uint256 => string) public _secretHash;\n  // mapping from tokenId to encrypted secret\n  mapping (uint256 => string) public _encrSecret;\n  // mapping from tokenId to its price\n  mapping (uint256 => uint256) public origPrice;\n  // mapping from tokenId to a binary indicator of 'for sale' status\n  mapping (uint256 => bool) public forSale;\n  // 1:n mapping from batchId to set of tokenIds\n  mapping (uint256 => EnumerableSet.UintSet) _batchSet;\n  // mapping from batchId to the number of tokens it contains\n  mapping (uint256 => uint256) public batchMax;\n\n  /// @notice tokens issued\n  uint256 public maxIndex = 0;\n  /// @notice batches issued\n  uint256 public lastBatch = 0;\n  /// @notice pause dummy\n  bool public stopped = false;\n\n  /// @notice stops the function if emergency is triggered\n  modifier stopInEmergency { require(!stopped); _; }\n\n\n  /// @notice Log when price set and put up for sale\n  event LogPriceSet(uint256 tokenId,uint256 price);\n  /// @notice Log for new hash assigned\n  event LogNewHash(uint256 batchId, string  hashed);\n  /// @notice Log for new secret assigned\n  event LogNewSecret(uint256 tokenId, string  secret);\n\n  /// @notice Returns the number of tokens in a given batch\n  /// @dev the require() ensures batch exists\n  /// @param batchId target batch\n  /// @return number of tokens in a batch\n  function batchSize(uint256 batchId) public view returns (uint256)  {\n    require(lastBatch>=batchId);\n    return batchMax[batchId];\n  }\n\n  /// @notice Assigns a hash to a batch\n  /// @dev internal, callable from Child\n  /// @param batchId target batch\n  /// @param hashed the hash of unencrypted secret\n  function _setSecretHash(uint256 batchId, string memory hashed) internal  {\n   _secretHash[batchId] = hashed;\n   emit LogNewHash( batchId,   hashed);\n }\n\n /// @notice Returns the secret hash of a batch\n /// @param batchId target batch\n /// @return hash as a string\n function viewSecretHash(uint256 batchId) public view returns (string memory) {\n   return _secretHash[batchId];\n }\n\n /// @notice Assigns a secret to a token\n /// @dev internal, callable from Child\n /// @param tokenId target token\n /// @param secret encrypted secret to be assigned\n function _setEncSecret(uint256 tokenId, string memory secret) internal {\n   _encrSecret[tokenId] = secret;\n   emit LogNewSecret( tokenId,   secret);\n }\n\n /// @notice Returns the secret of a token\n /// @param tokenId target token\n /// @return secret as a string\n function viewEncSecret(uint256 tokenId) public view returns (string memory) {\n   return _encrSecret[tokenId];\n }\n\n /// @notice Returns the price of a given token\n /// @dev the require() ensures the token is for sale\n /// @param tokenId target token\n /// @return the min price for a given token as uint256\n function getPrice(uint256 tokenId) public view returns(uint256) {\n   require(forSale[tokenId]==true);\n   return  origPrice[tokenId];\n }\n\n /// @notice Sets the price for a token and puts it up for sale\n /// @dev internal, callable from Child\n /// @param tokenId target token\n /// @param price min price to be assigned\n function _setPrice(uint256 tokenId, uint256 price) internal {\n     origPrice[tokenId]=price;\n     forSale[tokenId]=true;\n     emit LogPriceSet(tokenId,price);\n\n\n }\n}\n",
  "sourcePath": "NFTcryptTools.sol",
  "compiler": {
    "name": "solc",
    "version": "0.6.2+commit.bacdbe57.Emscripten.clang"
  },
  "schemaVersion": "3.1.0",
  "updatedAt": "2020-12-18T09:55:45.283Z",
  "devdoc": {
    "author": "Martin Strobl",
    "methods": {
      "batchSize(uint256)": {
        "details": "the require() ensures batch exists",
        "params": {
          "batchId": "target batch"
        },
        "returns": {
          "_0": "number of tokens in a batch"
        }
      },
      "getPrice(uint256)": {
        "details": "the require() ensures the token is for sale",
        "params": {
          "tokenId": "target token"
        },
        "returns": {
          "_0": "the min price for a given token as uint256"
        }
      },
      "viewEncSecret(uint256)": {
        "params": {
          "tokenId": "target token"
        },
        "returns": {
          "_0": "secret as a string"
        }
      },
      "viewSecretHash(uint256)": {
        "params": {
          "batchId": "target batch"
        },
        "returns": {
          "_0": "hash as a string"
        }
      }
    },
    "title": "NFTcryptTools - stores key mappings and handling functions"
  },
  "userdoc": {
    "methods": {
      "batchSize(uint256)": {
        "notice": "Returns the number of tokens in a given batch"
      },
      "getPrice(uint256)": {
        "notice": "Returns the price of a given token"
      },
      "viewEncSecret(uint256)": {
        "notice": "Returns the secret of a token"
      },
      "viewSecretHash(uint256)": {
        "notice": "Returns the secret hash of a batch"
      }
    },
    "notice": "This contract serves as a codebase for the Child ERC721 contract, all the internal functions are callable from there by the contract owner; all functions either internal or public view"
  }
}