{
  "contractName": "NFTcrypt",
  "abi": [
    {
      "inputs": [
        {
          "internalType": "uint256",
          "name": "",
          "type": "uint256"
        }
      ],
      "name": "deployed",
      "outputs": [
        {
          "internalType": "address",
          "name": "",
          "type": "address"
        }
      ],
      "stateMutability": "view",
      "type": "function",
      "constant": true
    },
    {
      "inputs": [],
      "name": "lastChildId",
      "outputs": [
        {
          "internalType": "uint256",
          "name": "",
          "type": "uint256"
        }
      ],
      "stateMutability": "view",
      "type": "function",
      "constant": true
    },
    {
      "inputs": [
        {
          "internalType": "string",
          "name": "name",
          "type": "string"
        },
        {
          "internalType": "string",
          "name": "abb",
          "type": "string"
        }
      ],
      "name": "createChild",
      "outputs": [],
      "stateMutability": "payable",
      "type": "function",
      "payable": true
    },
    {
      "inputs": [
        {
          "internalType": "address",
          "name": "owner",
          "type": "address"
        },
        {
          "internalType": "uint256",
          "name": "id",
          "type": "uint256"
        }
      ],
      "name": "deployedAddress",
      "outputs": [
        {
          "internalType": "address",
          "name": "",
          "type": "address"
        }
      ],
      "stateMutability": "view",
      "type": "function",
      "constant": true
    },
    {
      "inputs": [
        {
          "internalType": "uint256",
          "name": "id",
          "type": "uint256"
        }
      ],
      "name": "getDeployed",
      "outputs": [
        {
          "internalType": "address",
          "name": "",
          "type": "address"
        }
      ],
      "stateMutability": "view",
      "type": "function",
      "constant": true
    }
  ],
  "bytecode": "0x6080604052600060025534801561001557600080fd5b50615f45806100256000396000f3fe608060405260043610620000505760003560e01c80630680d1b8146200005557806307792dba14620000d457806315b40ec014620001025780634565e1d514620001815780639416168814620002dc575b600080fd5b3480156200006257600080fd5b5062000092600480360360208110156200007b57600080fd5b81019080803590602001909291905050506200037b565b604051808273ffffffffffffffffffffffffffffffffffffffff1673ffffffffffffffffffffffffffffffffffffffff16815260200191505060405180910390f35b348015620000e157600080fd5b50620000ec620003b8565b6040518082815260200191505060405180910390f35b3480156200010f57600080fd5b506200013f600480360360208110156200012857600080fd5b8101908080359060200190929190505050620003be565b604051808273ffffffffffffffffffffffffffffffffffffffff1673ffffffffffffffffffffffffffffffffffffffff16815260200191505060405180910390f35b620002da600480360360408110156200019957600080fd5b8101908080359060200190640100000000811115620001b757600080fd5b820183602082011115620001ca57600080fd5b80359060200191846001830284011164010000000083111715620001ed57600080fd5b91908080601f016020809104026020016040519081016040528093929190818152602001838380828437600081840152601f19601f820116905080830192505050505050509192919290803590602001906401000000008111156200025157600080fd5b8201836020820111156200026457600080fd5b803590602001918460018302840111640100000000831117156200028757600080fd5b91908080601f016020809104026020016040519081016040528093929190818152602001838380828437600081840152601f19601f820116905080830192505050505050509192919290505050620003f1565b005b348015620002e957600080fd5b5062000339600480360360408110156200030257600080fd5b81019080803573ffffffffffffffffffffffffffffffffffffffff16906020019092919080359060200190929190505050620005fb565b604051808273ffffffffffffffffffffffffffffffffffffffff1673ffffffffffffffffffffffffffffffffffffffff16815260200191505060405180910390f35b60006001600083815260200190815260200160002060009054906101000a900473ffffffffffffffffffffffffffffffffffffffff169050919050565b60025481565b60016020528060005260406000206000915054906101000a900473ffffffffffffffffffffffffffffffffffffffff1681565b6000348383336040516200040590620007c2565b8080602001806020018473ffffffffffffffffffffffffffffffffffffffff1673ffffffffffffffffffffffffffffffffffffffff168152602001838103835286818151815260200191508051906020019080838360005b838110156200047a5780820151818401526020810190506200045d565b50505050905090810190601f168015620004a85780820380516001836020036101000a031916815260200191505b50838103825285818151815260200191508051906020019080838360005b83811015620004e3578082015181840152602081019050620004c6565b50505050905090810190601f168015620005115780820380516001836020036101000a031916815260200191505b50955050505050506040518091039082f090508015801562000537573d6000803e3d6000fd5b5090506200058c816000803373ffffffffffffffffffffffffffffffffffffffff1673ffffffffffffffffffffffffffffffffffffffff1681526020019081526020016000206200065790919063ffffffff16565b508060016000600160025401815260200190815260200160002060006101000a81548173ffffffffffffffffffffffffffffffffffffffff021916908373ffffffffffffffffffffffffffffffffffffffff160217905550600260008154809291906001019190505550505050565b60006200064f826000808673ffffffffffffffffffffffffffffffffffffffff1673ffffffffffffffffffffffffffffffffffffffff1681526020019081526020016000206200068990919063ffffffff16565b905092915050565b600062000681836000018373ffffffffffffffffffffffffffffffffffffffff1660001b620006a5565b905092915050565b60006200069a836000018362000719565b60001c905092915050565b6000620006b383836200079f565b6200070e57826000018290806001815401808255809150506001900390600052602060002001600090919091909150558260000180549050836001016000848152602001908152602001600020819055506001905062000713565b600090505b92915050565b6000818360000180549050116200077c576040517f08c379a000000000000000000000000000000000000000000000000000000000815260040180806020018281038252602281526020018062005eee6022913960400191505060405180910390fd5b8260000182815481106200078c57fe5b9060005260206000200154905092915050565b600080836001016000848152602001908152602001600020541415905092915050565b61571d80620007d18339019056fe60806040526001600a60006101000a81548160ff021916908315150217905550600060115560006012556000601360006101000a81548160ff0219169083151502179055506040516200571d3803806200571d833981810160405260608110156200006957600080fd5b81019080805160405193929190846401000000008211156200008a57600080fd5b83820191506020820185811115620000a157600080fd5b8251866001820283011164010000000082111715620000bf57600080fd5b8083526020830192505050908051906020019080838360005b83811015620000f5578082015181840152602081019050620000d8565b50505050905090810190601f168015620001235780820380516001836020036101000a031916815260200191505b50604052602001805160405193929190846401000000008211156200014757600080fd5b838201915060208201858111156200015e57600080fd5b82518660018202830111640100000000821117156200017c57600080fd5b8083526020830192505050908051906020019080838360005b83811015620001b257808201518184015260208101905062000195565b50505050905090810190601f168015620001e05780820380516001836020036101000a031916815260200191505b506040526020018051906020019092919050505082826200020e6301ffc9a760e01b6200035560201b60201c565b81600690805190602001906200022692919062000681565b5080600790805190602001906200023f92919062000681565b50620002586380ac58cd60e01b6200035560201b60201c565b62000270635b5e139f60e01b6200035560201b60201c565b6200028863780e9d6360e01b6200035560201b60201c565b505060006200029c6200045e60201b60201c565b905080600a60016101000a81548173ffffffffffffffffffffffffffffffffffffffff021916908373ffffffffffffffffffffffffffffffffffffffff1602179055508073ffffffffffffffffffffffffffffffffffffffff16600073ffffffffffffffffffffffffffffffffffffffff167f8be0079c531659141344cd1fd0a4f28419497f9722a3daafe3b4186f6b6457e060405160405180910390a3506200034c816200046660201b60201c565b50505062000730565b63ffffffff60e01b817bffffffffffffffffffffffffffffffffffffffffffffffffffffffff19161415620003f2576040517f08c379a000000000000000000000000000000000000000000000000000000000815260040180806020018281038252601c8152602001807f4552433136353a20696e76616c696420696e746572666163652069640000000081525060200191505060405180910390fd5b6001600080837bffffffffffffffffffffffffffffffffffffffffffffffffffffffff19167bffffffffffffffffffffffffffffffffffffffffffffffffffffffff1916815260200190815260200160002060006101000a81548160ff02191690831515021790555050565b600033905090565b620004766200045e60201b60201c565b73ffffffffffffffffffffffffffffffffffffffff16600a60019054906101000a900473ffffffffffffffffffffffffffffffffffffffff1673ffffffffffffffffffffffffffffffffffffffff161462000539576040517f08c379a00000000000000000000000000000000000000000000000000000000081526004018080602001828103825260208152602001807f4f776e61626c653a2063616c6c6572206973206e6f7420746865206f776e657281525060200191505060405180910390fd5b600073ffffffffffffffffffffffffffffffffffffffff168173ffffffffffffffffffffffffffffffffffffffff161415620005c1576040517f08c379a0000000000000000000000000000000000000000000000000000000008152600401808060200182810382526026815260200180620056f76026913960400191505060405180910390fd5b8073ffffffffffffffffffffffffffffffffffffffff16600a60019054906101000a900473ffffffffffffffffffffffffffffffffffffffff1673ffffffffffffffffffffffffffffffffffffffff167f8be0079c531659141344cd1fd0a4f28419497f9722a3daafe3b4186f6b6457e060405160405180910390a380600a60016101000a81548173ffffffffffffffffffffffffffffffffffffffff021916908373ffffffffffffffffffffffffffffffffffffffff16021790555050565b828054600181600116156101000203166002900490600052602060002090601f016020900481019282601f10620006c457805160ff1916838001178555620006f5565b82800160010185558215620006f5579182015b82811115620006f4578251825591602001919060010190620006d7565b5b50905062000704919062000708565b5090565b6200072d91905b80821115620007295760008160009055506001016200070f565b5090565b90565b614fb780620007406000396000f3fe6080604052600436106102515760003560e01c806371cefbe911610139578063a4636456116100b6578063dcd19eac1161007a578063dcd19eac146113cf578063e757223014611414578063e985e9c514611463578063efef39a1146114ec578063f2fde38b1461151a578063f7d975771461156b57610251565b8063a4636456146110c1578063b6fdfcde14611110578063b88d4fde146111c4578063b93afa12146112d6578063c87b56dd1461131b57610251565b80638da5cb5b116100fd5780638da5cb5b14610e7a57806392d2840414610ed15780639461cbfc14610f8557806395d89b4114610fd4578063a22cb4651461106457610251565b806371cefbe914610bc257806375f12b2114610c9457806377a263d314610cc3578063867ad03314610d125780638a7a018d14610dc657610251565b80632f745c59116101d257806357d159c61161019657806357d159c61461092c5780635abae699146109695780636352211e14610a3b5780636c0360eb14610ab657806370a0823114610b46578063715018a614610bab57610251565b80632f745c59146106f6578063409616c91461076557806342842e0e1461083757806348aa4108146108b25780634f6ccce7146108dd57610251565b806318160ddd1161021957806318160ddd146105005780631da025f81461052b57806323b872dd146105fd5780632831f2f4146106785780632ca869bf146106cb57610251565b806301ffc9a71461025657806306fdde03146102c8578063081812fc14610358578063095ea7b3146103d3578063162094c41461042e575b600080fd5b34801561026257600080fd5b506102ae6004803603602081101561027957600080fd5b8101908080357bffffffffffffffffffffffffffffffffffffffffffffffffffffffff191690602001909291905050506115b0565b604051808215151515815260200191505060405180910390f35b3480156102d457600080fd5b506102dd611617565b6040518080602001828103825283818151815260200191508051906020019080838360005b8381101561031d578082015181840152602081019050610302565b50505050905090810190601f16801561034a5780820380516001836020036101000a031916815260200191505b509250505060405180910390f35b34801561036457600080fd5b506103916004803603602081101561037b57600080fd5b81019080803590602001909291905050506116b9565b604051808273ffffffffffffffffffffffffffffffffffffffff1673ffffffffffffffffffffffffffffffffffffffff16815260200191505060405180910390f35b3480156103df57600080fd5b5061042c600480360360408110156103f657600080fd5b81019080803573ffffffffffffffffffffffffffffffffffffffff16906020019092919080359060200190929190505050611773565b005b34801561043a57600080fd5b506104fe6004803603604081101561045157600080fd5b81019080803590602001909291908035906020019064010000000081111561047857600080fd5b82018360208201111561048a57600080fd5b803590602001918460018302840111640100000000831117156104ac57600080fd5b91908080601f016020809104026020016040519081016040528093929190818152602001838380828437600081840152601f19601f8201169050808301925050505050505091929192905050506118d7565b005b34801561050c57600080fd5b50610515611a2c565b6040518082815260200191505060405180910390f35b34801561053757600080fd5b506105fb6004803603604081101561054e57600080fd5b81019080803590602001909291908035906020019064010000000081111561057557600080fd5b82018360208201111561058757600080fd5b803590602001918460018302840111640100000000831117156105a957600080fd5b91908080601f016020809104026020016040519081016040528093929190818152602001838380828437600081840152601f19601f820116905080830192505050505050509192919290505050611a3d565b005b34801561060957600080fd5b506106766004803603606081101561062057600080fd5b81019080803573ffffffffffffffffffffffffffffffffffffffff169060200190929190803573ffffffffffffffffffffffffffffffffffffffff16906020019092919080359060200190929190505050611c1b565b005b34801561068457600080fd5b506106b16004803603602081101561069b57600080fd5b8101908080359060200190929190505050611cb1565b604051808215151515815260200191505060405180910390f35b3480156106d757600080fd5b506106e0611cd1565b6040518082815260200191505060405180910390f35b34801561070257600080fd5b5061074f6004803603604081101561071957600080fd5b81019080803573ffffffffffffffffffffffffffffffffffffffff16906020019092919080359060200190929190505050611cd7565b6040518082815260200191505060405180910390f35b34801561077157600080fd5b506108356004803603604081101561078857600080fd5b8101908080359060200190929190803590602001906401000000008111156107af57600080fd5b8201836020820111156107c157600080fd5b803590602001918460018302840111640100000000831117156107e357600080fd5b91908080601f016020809104026020016040519081016040528093929190818152602001838380828437600081840152601f19601f820116905080830192505050505050509192919290505050611d32565b005b34801561084357600080fd5b506108b06004803603606081101561085a57600080fd5b81019080803573ffffffffffffffffffffffffffffffffffffffff169060200190929190803573ffffffffffffffffffffffffffffffffffffffff16906020019092919080359060200190929190505050611ee6565b005b3480156108be57600080fd5b506108c7611f26565b6040518082815260200191505060405180910390f35b3480156108e957600080fd5b506109166004803603602081101561090057600080fd5b8101908080359060200190929190505050611f2c565b6040518082815260200191505060405180910390f35b34801561093857600080fd5b506109676004803603602081101561094f57600080fd5b81019080803515159060200190929190505050611f4f565b005b34801561097557600080fd5b50610a396004803603604081101561098c57600080fd5b8101908080359060200190929190803590602001906401000000008111156109b357600080fd5b8201836020820111156109c557600080fd5b803590602001918460018302840111640100000000831117156109e757600080fd5b91908080601f016020809104026020016040519081016040528093929190818152602001838380828437600081840152601f19601f820116905080830192505050505050509192919290505050612036565b005b348015610a4757600080fd5b50610a7460048036036020811015610a5e57600080fd5b810190808035906020019092919050505061211f565b604051808273ffffffffffffffffffffffffffffffffffffffff1673ffffffffffffffffffffffffffffffffffffffff16815260200191505060405180910390f35b348015610ac257600080fd5b50610acb612156565b6040518080602001828103825283818151815260200191508051906020019080838360005b83811015610b0b578082015181840152602081019050610af0565b50505050905090810190601f168015610b385780820380516001836020036101000a031916815260200191505b509250505060405180910390f35b348015610b5257600080fd5b50610b9560048036036020811015610b6957600080fd5b81019080803573ffffffffffffffffffffffffffffffffffffffff1690602001909291905050506121f8565b6040518082815260200191505060405180910390f35b348015610bb757600080fd5b50610bc06122cd565b005b348015610bce57600080fd5b50610c9260048036036040811015610be557600080fd5b810190808035906020019092919080359060200190640100000000811115610c0c57600080fd5b820183602082011115610c1e57600080fd5b80359060200191846001830284011164010000000083111715610c4057600080fd5b91908080601f016020809104026020016040519081016040528093929190818152602001838380828437600081840152601f19601f820116905080830192505050505050509192919290505050612458565b005b348015610ca057600080fd5b50610ca961254e565b604051808215151515815260200191505060405180910390f35b348015610ccf57600080fd5b50610cfc60048036036020811015610ce657600080fd5b8101908080359060200190929190505050612561565b6040518082815260200191505060405180910390f35b348015610d1e57600080fd5b50610d4b60048036036020811015610d3557600080fd5b8101908080359060200190929190505050612579565b6040518080602001828103825283818151815260200191508051906020019080838360005b83811015610d8b578082015181840152602081019050610d70565b50505050905090810190601f168015610db85780820380516001836020036101000a031916815260200191505b509250505060405180910390f35b348015610dd257600080fd5b50610dff60048036036020811015610de957600080fd5b810190808035906020019092919050505061262e565b6040518080602001828103825283818151815260200191508051906020019080838360005b83811015610e3f578082015181840152602081019050610e24565b50505050905090810190601f168015610e6c5780820380516001836020036101000a031916815260200191505b509250505060405180910390f35b348015610e8657600080fd5b50610e8f6126e3565b604051808273ffffffffffffffffffffffffffffffffffffffff1673ffffffffffffffffffffffffffffffffffffffff16815260200191505060405180910390f35b348015610edd57600080fd5b50610f0a60048036036020811015610ef457600080fd5b810190808035906020019092919050505061270d565b6040518080602001828103825283818151815260200191508051906020019080838360005b83811015610f4a578082015181840152602081019050610f2f565b50505050905090810190601f168015610f775780820380516001836020036101000a031916815260200191505b509250505060405180910390f35b348015610f9157600080fd5b50610fbe60048036036020811015610fa857600080fd5b81019080803590602001909291905050506127bd565b6040518082815260200191505060405180910390f35b348015610fe057600080fd5b50610fe96127e9565b6040518080602001828103825283818151815260200191508051906020019080838360005b8381101561102957808201518184015260208101905061100e565b50505050905090810190601f1680156110565780820380516001836020036101000a031916815260200191505b509250505060405180910390f35b34801561107057600080fd5b506110bf6004803603604081101561108757600080fd5b81019080803573ffffffffffffffffffffffffffffffffffffffff16906020019092919080351515906020019092919050505061288b565b005b3480156110cd57600080fd5b506110fa600480360360208110156110e457600080fd5b8101908080359060200190929190505050612a63565b6040518082815260200191505060405180910390f35b34801561111c57600080fd5b506111496004803603602081101561113357600080fd5b8101908080359060200190929190505050612a7b565b6040518080602001828103825283818151815260200191508051906020019080838360005b8381101561118957808201518184015260208101905061116e565b50505050905090810190601f1680156111b65780820380516001836020036101000a031916815260200191505b509250505060405180910390f35b3480156111d057600080fd5b506112d4600480360360808110156111e757600080fd5b81019080803573ffffffffffffffffffffffffffffffffffffffff169060200190929190803573ffffffffffffffffffffffffffffffffffffffff169060200190929190803590602001909291908035906020019064010000000081111561124e57600080fd5b82018360208201111561126057600080fd5b8035906020019184600183028401116401000000008311171561128257600080fd5b91908080601f016020809104026020016040519081016040528093929190818152602001838380828437600081840152601f19601f820116905080830192505050505050509192919290505050612b2b565b005b3480156112e257600080fd5b50611319600480360360408110156112f957600080fd5b810190808035906020019092919080359060200190929190505050612bc3565b005b34801561132757600080fd5b506113546004803603602081101561133e57600080fd5b8101908080359060200190929190505050612cfd565b6040518080602001828103825283818151815260200191508051906020019080838360005b83811015611394578082015181840152602081019050611379565b50505050905090810190601f1680156113c15780820380516001836020036101000a031916815260200191505b509250505060405180910390f35b3480156113db57600080fd5b50611412600480360360408110156113f257600080fd5b810190808035906020019092919080359060200190929190505050612fe6565b005b34801561142057600080fd5b5061144d6004803603602081101561143757600080fd5b81019080803590602001909291905050506131af565b6040518082815260200191505060405180910390f35b34801561146f57600080fd5b506114d26004803603604081101561148657600080fd5b81019080803573ffffffffffffffffffffffffffffffffffffffff169060200190929190803573ffffffffffffffffffffffffffffffffffffffff1690602001909291905050506131fd565b604051808215151515815260200191505060405180910390f35b6115186004803603602081101561150257600080fd5b81019080803590602001909291905050506132b0565b005b34801561152657600080fd5b506115696004803603602081101561153d57600080fd5b81019080803573ffffffffffffffffffffffffffffffffffffffff16906020019092919050505061349f565b005b34801561157757600080fd5b506115ae6004803603604081101561158e57600080fd5b8101908080359060200190929190803590602001909291905050506136af565b005b6000806000837bffffffffffffffffffffffffffffffffffffffffffffffffffffffff19167bffffffffffffffffffffffffffffffffffffffffffffffffffffffff1916815260200190815260200160002060009054906101000a900460ff169050919050565b606060068054600181600116156101000203166002900480601f0160208091040260200160405190810160405280929190818152602001828054600181600116156101000203166002900480156116af5780601f10611684576101008083540402835291602001916116af565b820191906000526020600020905b81548152906001019060200180831161169257829003601f168201915b5050505050905090565b6000801515600a60009054906101000a900460ff161515146116da57600080fd5b6116e382613844565b611738576040517f08c379a000000000000000000000000000000000000000000000000000000000815260040180806020018281038252602c815260200180614e80602c913960400191505060405180910390fd5b6004600083815260200190815260200160002060009054906101000a900473ffffffffffffffffffffffffffffffffffffffff169050919050565b60001515600a60009054906101000a900460ff1615151461179357600080fd5b600061179e8261211f565b90508073ffffffffffffffffffffffffffffffffffffffff168373ffffffffffffffffffffffffffffffffffffffff161415611825576040517f08c379a0000000000000000000000000000000000000000000000000000000008152600401808060200182810382526021815260200180614f306021913960400191505060405180910390fd5b8073ffffffffffffffffffffffffffffffffffffffff16611844613861565b73ffffffffffffffffffffffffffffffffffffffff16148061187357506118728161186d613861565b6131fd565b5b6118c8576040517f08c379a0000000000000000000000000000000000000000000000000000000008152600401808060200182810382526038815260200180614dd36038913960400191505060405180910390fd5b6118d28383613869565b505050565b816118e181613844565b611953576040517f08c379a00000000000000000000000000000000000000000000000000000000081526004018080602001828103825260058152602001807f6e6f6e657800000000000000000000000000000000000000000000000000000081525060200191505060405180910390fd5b61195b613861565b73ffffffffffffffffffffffffffffffffffffffff16600a60019054906101000a900473ffffffffffffffffffffffffffffffffffffffff1673ffffffffffffffffffffffffffffffffffffffff1614611a1d576040517f08c379a00000000000000000000000000000000000000000000000000000000081526004018080602001828103825260208152602001807f4f776e61626c653a2063616c6c6572206973206e6f7420746865206f776e657281525060200191505060405180910390fd5b611a278383613942565b505050565b6000611a3860026139cc565b905090565b611a45613861565b73ffffffffffffffffffffffffffffffffffffffff16600a60019054906101000a900473ffffffffffffffffffffffffffffffffffffffff1673ffffffffffffffffffffffffffffffffffffffff1614611b07576040517f08c379a00000000000000000000000000000000000000000000000000000000081526004018080602001828103825260208152602001807f4f776e61626c653a2063616c6c6572206973206e6f7420746865206f776e657281525060200191505060405180910390fd5b816012541015611b1657600080fd5b60008090505b6010600084815260200190815260200160002054811015611b7257611b65611b5f82600f60008781526020019081526020016000206139e190919063ffffffff16565b83613942565b8080600101915050611b1c565b7f9e5146492192ab364dd1d172f5c5a23d5d15fdd6547b0c424dcd5375523ae2e783836040518083815260200180602001828103825283818151815260200191508051906020019080838360005b83811015611bdb578082015181840152602081019050611bc0565b50505050905090810190601f168015611c085780820380516001836020036101000a031916815260200191505b50935050505060405180910390a1505050565b60001515600a60009054906101000a900460ff16151514611c3b57600080fd5b611c4c611c46613861565b826139fb565b611ca1576040517f08c379a0000000000000000000000000000000000000000000000000000000008152600401808060200182810382526031815260200180614f516031913960400191505060405180910390fd5b611cac838383613aef565b505050565b600e6020528060005260406000206000915054906101000a900460ff1681565b60115481565b6000611d2a82600160008673ffffffffffffffffffffffffffffffffffffffff1673ffffffffffffffffffffffffffffffffffffffff1681526020019081526020016000206139e190919063ffffffff16565b905092915050565b81611d3c81613844565b611dae576040517f08c379a00000000000000000000000000000000000000000000000000000000081526004018080602001828103825260058152602001807f6e6f6e657800000000000000000000000000000000000000000000000000000081525060200191505060405180910390fd5b611db6613861565b73ffffffffffffffffffffffffffffffffffffffff16600a60019054906101000a900473ffffffffffffffffffffffffffffffffffffffff1673ffffffffffffffffffffffffffffffffffffffff1614611e78576040517f08c379a00000000000000000000000000000000000000000000000000000000081526004018080602001828103825260208152602001807f4f776e61626c653a2063616c6c6572206973206e6f7420746865206f776e657281525060200191505060405180910390fd5b3373ffffffffffffffffffffffffffffffffffffffff16611e988461211f565b73ffffffffffffffffffffffffffffffffffffffff161415611eb957600080fd5b81600c60008581526020019081526020016000209080519060200190611ee0929190614c3d565b50505050565b60001515600a60009054906101000a900460ff16151514611f0657600080fd5b611f2183838360405180602001604052806000815250612b2b565b505050565b60125481565b600080611f43836002613d1c90919063ffffffff16565b50905080915050919050565b611f57613861565b73ffffffffffffffffffffffffffffffffffffffff16600a60019054906101000a900473ffffffffffffffffffffffffffffffffffffffff1673ffffffffffffffffffffffffffffffffffffffff1614612019576040517f08c379a00000000000000000000000000000000000000000000000000000000081526004018080602001828103825260208152602001807f4f776e61626c653a2063616c6c6572206973206e6f7420746865206f776e657281525060200191505060405180910390fd5b80601360006101000a81548160ff02191690831515021790555050565b61203e613861565b73ffffffffffffffffffffffffffffffffffffffff16600a60019054906101000a900473ffffffffffffffffffffffffffffffffffffffff1673ffffffffffffffffffffffffffffffffffffffff1614612100576040517f08c379a00000000000000000000000000000000000000000000000000000000081526004018080602001828103825260208152602001807f4f776e61626c653a2063616c6c6572206973206e6f7420746865206f776e657281525060200191505060405180910390fd5b61210f82600160125401612fe6565b61211b60125482611a3d565b5050565b600061214f82604051806060016040528060298152602001614e35602991396002613d4b9092919063ffffffff16565b9050919050565b606060098054600181600116156101000203166002900480601f0160208091040260200160405190810160405280929190818152602001828054600181600116156101000203166002900480156121ee5780601f106121c3576101008083540402835291602001916121ee565b820191906000526020600020905b8154815290600101906020018083116121d157829003601f168201915b5050505050905090565b60008073ffffffffffffffffffffffffffffffffffffffff168273ffffffffffffffffffffffffffffffffffffffff16141561227f576040517f08c379a000000000000000000000000000000000000000000000000000000000815260040180806020018281038252602a815260200180614e0b602a913960400191505060405180910390fd5b6122c6600160008473ffffffffffffffffffffffffffffffffffffffff1673ffffffffffffffffffffffffffffffffffffffff168152602001908152602001600020613d6a565b9050919050565b6122d5613861565b73ffffffffffffffffffffffffffffffffffffffff16600a60019054906101000a900473ffffffffffffffffffffffffffffffffffffffff1673ffffffffffffffffffffffffffffffffffffffff1614612397576040517f08c379a00000000000000000000000000000000000000000000000000000000081526004018080602001828103825260208152602001807f4f776e61626c653a2063616c6c6572206973206e6f7420746865206f776e657281525060200191505060405180910390fd5b600073ffffffffffffffffffffffffffffffffffffffff16600a60019054906101000a900473ffffffffffffffffffffffffffffffffffffffff1673ffffffffffffffffffffffffffffffffffffffff167f8be0079c531659141344cd1fd0a4f28419497f9722a3daafe3b4186f6b6457e060405160405180910390a36000600a60016101000a81548173ffffffffffffffffffffffffffffffffffffffff021916908373ffffffffffffffffffffffffffffffffffffffff160217905550565b612460613861565b73ffffffffffffffffffffffffffffffffffffffff16600a60019054906101000a900473ffffffffffffffffffffffffffffffffffffffff1673ffffffffffffffffffffffffffffffffffffffff1614612522576040517f08c379a00000000000000000000000000000000000000000000000000000000081526004018080602001828103825260208152602001807f4f776e61626c653a2063616c6c6572206973206e6f7420746865206f776e657281525060200191505060405180910390fd5b80600b60008481526020019081526020016000209080519060200190612549929190614c3d565b505050565b601360009054906101000a900460ff1681565b600d6020528060005260406000206000915090505481565b6060600b60008381526020019081526020016000208054600181600116156101000203166002900480601f0160208091040260200160405190810160405280929190818152602001828054600181600116156101000203166002900480156126225780601f106125f757610100808354040283529160200191612622565b820191906000526020600020905b81548152906001019060200180831161260557829003601f168201915b50505050509050919050565b6060600c60008381526020019081526020016000208054600181600116156101000203166002900480601f0160208091040260200160405190810160405280929190818152602001828054600181600116156101000203166002900480156126d75780601f106126ac576101008083540402835291602001916126d7565b820191906000526020600020905b8154815290600101906020018083116126ba57829003601f168201915b50505050509050919050565b6000600a60019054906101000a900473ffffffffffffffffffffffffffffffffffffffff16905090565b600b6020528060005260406000206000915090508054600181600116156101000203166002900480601f0160208091040260200160405190810160405280929190818152602001828054600181600116156101000203166002900480156127b55780601f1061278a576101008083540402835291602001916127b5565b820191906000526020600020905b81548152906001019060200180831161279857829003601f168201915b505050505081565b60008160125410156127ce57600080fd5b60106000838152602001908152602001600020549050919050565b606060078054600181600116156101000203166002900480601f0160208091040260200160405190810160405280929190818152602001828054600181600116156101000203166002900480156128815780601f1061285657610100808354040283529160200191612881565b820191906000526020600020905b81548152906001019060200180831161286457829003601f168201915b5050505050905090565b60001515600a60009054906101000a900460ff161515146128ab57600080fd5b6128b3613861565b73ffffffffffffffffffffffffffffffffffffffff168273ffffffffffffffffffffffffffffffffffffffff161415612954576040517f08c379a00000000000000000000000000000000000000000000000000000000081526004018080602001828103825260198152602001807f4552433732313a20617070726f766520746f2063616c6c65720000000000000081525060200191505060405180910390fd5b8060056000612961613861565b73ffffffffffffffffffffffffffffffffffffffff1673ffffffffffffffffffffffffffffffffffffffff16815260200190815260200160002060008473ffffffffffffffffffffffffffffffffffffffff1673ffffffffffffffffffffffffffffffffffffffff16815260200190815260200160002060006101000a81548160ff0219169083151502179055508173ffffffffffffffffffffffffffffffffffffffff16612a0e613861565b73ffffffffffffffffffffffffffffffffffffffff167f17307eab39ab6107e8899845ad3d59bd9653f200f220920489ca2b5937696c3183604051808215151515815260200191505060405180910390a35050565b60106020528060005260406000206000915090505481565b600c6020528060005260406000206000915090508054600181600116156101000203166002900480601f016020809104026020016040519081016040528092919081815260200182805460018160011615610100020316600290048015612b235780601f10612af857610100808354040283529160200191612b23565b820191906000526020600020905b815481529060010190602001808311612b0657829003601f168201915b505050505081565b60001515600a60009054906101000a900460ff16151514612b4b57600080fd5b612b5c612b56613861565b836139fb565b612bb1576040517f08c379a0000000000000000000000000000000000000000000000000000000008152600401808060200182810382526031815260200180614f516031913960400191505060405180910390fd5b612bbd84848484613d7f565b50505050565b612bcb613861565b73ffffffffffffffffffffffffffffffffffffffff16600a60019054906101000a900473ffffffffffffffffffffffffffffffffffffffff1673ffffffffffffffffffffffffffffffffffffffff1614612c8d576040517f08c379a00000000000000000000000000000000000000000000000000000000081526004018080602001828103825260208152602001807f4f776e61626c653a2063616c6c6572206973206e6f7420746865206f776e657281525060200191505060405180910390fd5b816012541015612c9c57600080fd5b60008090505b6010600084815260200190815260200160002054811015612cf857612ceb612ce582600f60008781526020019081526020016000206139e190919063ffffffff16565b836136af565b8080600101915050612ca2565b505050565b6060612d0882613844565b612d5d576040517f08c379a000000000000000000000000000000000000000000000000000000000815260040180806020018281038252602f815260200180614f01602f913960400191505060405180910390fd5b6060600860008481526020019081526020016000208054600181600116156101000203166002900480601f016020809104026020016040519081016040528092919081815260200182805460018160011615610100020316600290048015612e065780601f10612ddb57610100808354040283529160200191612e06565b820191906000526020600020905b815481529060010190602001808311612de957829003601f168201915b50505050509050600060098054600181600116156101000203166002900490501415612e355780915050612fe1565b600081511115612f0e576009816040516020018083805460018160011615610100020316600290048015612ea05780601f10612e7e576101008083540402835291820191612ea0565b820191906000526020600020905b815481529060010190602001808311612e8c575b505082805190602001908083835b60208310612ed15780518252602082019150602081019050602083039250612eae565b6001836020036101000a03801982511681845116808217855250505050505090500192505050604051602081830303815290604052915050612fe1565b6009612f1984613e11565b6040516020018083805460018160011615610100020316600290048015612f775780601f10612f55576101008083540402835291820191612f77565b820191906000526020600020905b815481529060010190602001808311612f63575b505082805190602001908083835b60208310612fa85780518252602082019150602081019050602083039250612f85565b6001836020036101000a038019825116818451168082178552505050505050905001925050506040516020818303038152906040529150505b919050565b612fee613861565b73ffffffffffffffffffffffffffffffffffffffff16600a60019054906101000a900473ffffffffffffffffffffffffffffffffffffffff1673ffffffffffffffffffffffffffffffffffffffff16146130b0576040517f08c379a00000000000000000000000000000000000000000000000000000000081526004018080602001828103825260208152602001807f4f776e61626c653a2063616c6c6572206973206e6f7420746865206f776e657281525060200191505060405180910390fd5b8060125410613134576130c38282613f41565b8160106000838152602001908152602001600020540160106000838152602001908152602001600020819055507f0b9b8c374fb944bca2ba4cf3872fa34fb64bae5c59bd7b0852a1366bcd10a03b8282604051808381526020018281526020019250505060405180910390a16131ab565b61314382600160125401613f41565b60016012540160128190555081601060006012548152602001908152602001600020819055507f0b9b8c374fb944bca2ba4cf3872fa34fb64bae5c59bd7b0852a1366bcd10a03b82601254604051808381526020018281526020019250505060405180910390a15b5050565b600060011515600e600084815260200190815260200160002060009054906101000a900460ff161515146131e257600080fd5b600d6000838152602001908152602001600020549050919050565b6000801515600a60009054906101000a900460ff1615151461321e57600080fd5b600560008473ffffffffffffffffffffffffffffffffffffffff1673ffffffffffffffffffffffffffffffffffffffff16815260200190815260200160002060008373ffffffffffffffffffffffffffffffffffffffff1673ffffffffffffffffffffffffffffffffffffffff16815260200190815260200160002060009054906101000a900460ff16905092915050565b601360009054906101000a900460ff16156132ca57600080fd5b806132d481613844565b613346576040517f08c379a00000000000000000000000000000000000000000000000000000000081526004018080602001828103825260058152602001807f6e6f6e657800000000000000000000000000000000000000000000000000000081525060200191505060405180910390fd5b60011515600e600084815260200190815260200160002060009054906101000a900460ff16151514801561338d5750600d6000838152602001908152602001600020543410155b61339657600080fd5b6133a86133a16126e3565b3384613aef565b6000600e600084815260200190815260200160002060006101000a81548160ff02191690831515021790555060006133de6126e3565b90508073ffffffffffffffffffffffffffffffffffffffff166108fc349081150290604051600060405180830381858888f19350505050158015613426573d6000803e3d6000fd5b507f8f3b8e2afb709a56cd086b1a4e162d1ed7d0f7a69d431f68fd014d08b87e50b2833433604051808481526020018381526020018273ffffffffffffffffffffffffffffffffffffffff1673ffffffffffffffffffffffffffffffffffffffff168152602001935050505060405180910390a1505050565b6134a7613861565b73ffffffffffffffffffffffffffffffffffffffff16600a60019054906101000a900473ffffffffffffffffffffffffffffffffffffffff1673ffffffffffffffffffffffffffffffffffffffff1614613569576040517f08c379a00000000000000000000000000000000000000000000000000000000081526004018080602001828103825260208152602001807f4f776e61626c653a2063616c6c6572206973206e6f7420746865206f776e657281525060200191505060405180910390fd5b600073ffffffffffffffffffffffffffffffffffffffff168173ffffffffffffffffffffffffffffffffffffffff1614156135ef576040517f08c379a0000000000000000000000000000000000000000000000000000000008152600401808060200182810382526026815260200180614d376026913960400191505060405180910390fd5b8073ffffffffffffffffffffffffffffffffffffffff16600a60019054906101000a900473ffffffffffffffffffffffffffffffffffffffff1673ffffffffffffffffffffffffffffffffffffffff167f8be0079c531659141344cd1fd0a4f28419497f9722a3daafe3b4186f6b6457e060405160405180910390a380600a60016101000a81548173ffffffffffffffffffffffffffffffffffffffff021916908373ffffffffffffffffffffffffffffffffffffffff16021790555050565b816136b981613844565b61372b576040517f08c379a00000000000000000000000000000000000000000000000000000000081526004018080602001828103825260058152602001807f6e6f6e657800000000000000000000000000000000000000000000000000000081525060200191505060405180910390fd5b613733613861565b73ffffffffffffffffffffffffffffffffffffffff16600a60019054906101000a900473ffffffffffffffffffffffffffffffffffffffff1673ffffffffffffffffffffffffffffffffffffffff16146137f5576040517f08c379a00000000000000000000000000000000000000000000000000000000081526004018080602001828103825260208152602001807f4f776e61626c653a2063616c6c6572206973206e6f7420746865206f776e657281525060200191505060405180910390fd5b3373ffffffffffffffffffffffffffffffffffffffff166138158461211f565b73ffffffffffffffffffffffffffffffffffffffff161461383557600080fd5b61383f8383613fa7565b505050565b600061385a82600261402e90919063ffffffff16565b9050919050565b600033905090565b60001515600a60009054906101000a900460ff1615151461388957600080fd5b816004600083815260200190815260200160002060006101000a81548173ffffffffffffffffffffffffffffffffffffffff021916908373ffffffffffffffffffffffffffffffffffffffff160217905550808273ffffffffffffffffffffffffffffffffffffffff166138fc8361211f565b73ffffffffffffffffffffffffffffffffffffffff167f8c5be1e5ebec7d5bd14f71427d1e84f3dd0314c0f7b2291e5b200ac8c7c3b92560405160405180910390a45050565b61394b82613844565b6139a0576040517f08c379a000000000000000000000000000000000000000000000000000000000815260040180806020018281038252602c815260200180614eac602c913960400191505060405180910390fd5b806008600084815260200190815260200160002090805190602001906139c7929190614c3d565b505050565b60006139da82600001614048565b9050919050565b60006139f08360000183614059565b60001c905092915050565b6000613a0682613844565b613a5b576040517f08c379a000000000000000000000000000000000000000000000000000000000815260040180806020018281038252602c815260200180614da7602c913960400191505060405180910390fd5b6000613a668361211f565b90508073ffffffffffffffffffffffffffffffffffffffff168473ffffffffffffffffffffffffffffffffffffffff161480613ad557508373ffffffffffffffffffffffffffffffffffffffff16613abd846116b9565b73ffffffffffffffffffffffffffffffffffffffff16145b80613ae65750613ae581856131fd565b5b91505092915050565b8273ffffffffffffffffffffffffffffffffffffffff16613b0f8261211f565b73ffffffffffffffffffffffffffffffffffffffff1614613b7b576040517f08c379a0000000000000000000000000000000000000000000000000000000008152600401808060200182810382526029815260200180614ed86029913960400191505060405180910390fd5b600073ffffffffffffffffffffffffffffffffffffffff168273ffffffffffffffffffffffffffffffffffffffff161415613c01576040517f08c379a0000000000000000000000000000000000000000000000000000000008152600401808060200182810382526024815260200180614d5d6024913960400191505060405180910390fd5b613c5281600160008673ffffffffffffffffffffffffffffffffffffffff1673ffffffffffffffffffffffffffffffffffffffff1681526020019081526020016000206140dc90919063ffffffff16565b50613ca481600160008573ffffffffffffffffffffffffffffffffffffffff1673ffffffffffffffffffffffffffffffffffffffff1681526020019081526020016000206140f690919063ffffffff16565b50613cbb818360026141109092919063ffffffff16565b50808273ffffffffffffffffffffffffffffffffffffffff168473ffffffffffffffffffffffffffffffffffffffff167fddf252ad1be2c89b69c2b068fc378daa952ba7f163c4a11628f55a4df523b3ef60405160405180910390a4505050565b600080600080613d2f8660000186614145565b915091508160001c8160001c8090509350935050509250929050565b6000613d5e846000018460001b846141de565b60001c90509392505050565b6000613d78826000016142d4565b9050919050565b60001515600a60009054906101000a900460ff16151514613d9f57600080fd5b613daa848484613aef565b613db6848484846142e5565b613e0b576040517f08c379a0000000000000000000000000000000000000000000000000000000008152600401808060200182810382526032815260200180614d056032913960400191505060405180910390fd5b50505050565b60606000821415613e59576040518060400160405280600181526020017f30000000000000000000000000000000000000000000000000000000000000008152509050613f3c565b600082905060005b60008214613e83578080600101915050600a8281613e7b57fe5b049150613e61565b6060816040519080825280601f01601f191660200182016040528015613eb85781602001600182028038833980820191505090505b50905060006001830390508593505b60008414613f3457600a8481613ed957fe5b0660300160f81b82828060019003935081518110613ef357fe5b60200101907effffffffffffffffffffffffffffffffffffffffffffffffffffffffffffff1916908160001a905350600a8481613f2c57fe5b049350613ec7565b819450505050505b919050565b6000600190505b828111613fa257601160008154809291906001019190505550613f6d3360115461452a565b613f94601154600f60008581526020019081526020016000206140f690919063ffffffff16565b508080600101915050613f48565b505050565b80600d6000848152602001908152602001600020819055506001600e600084815260200190815260200160002060006101000a81548160ff0219169083151502179055507f44ebbd54211039351c915cb619b35cef44da7224679bc14417d93c4bc64ae16c8282604051808381526020018281526020019250505060405180910390a15050565b6000614040836000018360001b61471e565b905092915050565b600081600001805490509050919050565b6000818360000180549050116140ba576040517f08c379a0000000000000000000000000000000000000000000000000000000008152600401808060200182810382526022815260200180614ce36022913960400191505060405180910390fd5b8260000182815481106140c957fe5b9060005260206000200154905092915050565b60006140ee836000018360001b614741565b905092915050565b6000614108836000018360001b614829565b905092915050565b600061413c846000018460001b8473ffffffffffffffffffffffffffffffffffffffff1660001b614899565b90509392505050565b600080828460000180549050116141a7576040517f08c379a0000000000000000000000000000000000000000000000000000000008152600401808060200182810382526022815260200180614e5e6022913960400191505060405180910390fd5b60008460000184815481106141b857fe5b906000526020600020906002020190508060000154816001015492509250509250929050565b600080846001016000858152602001908152602001600020549050600081141583906142a5576040517f08c379a00000000000000000000000000000000000000000000000000000000081526004018080602001828103825283818151815260200191508051906020019080838360005b8381101561426a57808201518184015260208101905061424f565b50505050905090810190601f1680156142975780820380516001836020036101000a031916815260200191505b509250505060405180910390fd5b508460000160018203815481106142b857fe5b9060005260206000209060020201600101549150509392505050565b600081600001805490509050919050565b60006143068473ffffffffffffffffffffffffffffffffffffffff16614975565b6143135760019050614522565b60606144a963150b7a0260e01b614328613861565b888787604051602401808573ffffffffffffffffffffffffffffffffffffffff1673ffffffffffffffffffffffffffffffffffffffff1681526020018473ffffffffffffffffffffffffffffffffffffffff1673ffffffffffffffffffffffffffffffffffffffff16815260200183815260200180602001828103825283818151815260200191508051906020019080838360005b838110156143d85780820151818401526020810190506143bd565b50505050905090810190601f1680156144055780820380516001836020036101000a031916815260200191505b5095505050505050604051602081830303815290604052907bffffffffffffffffffffffffffffffffffffffffffffffffffffffff19166020820180517bffffffffffffffffffffffffffffffffffffffffffffffffffffffff8381831617835250505050604051806060016040528060328152602001614d05603291398773ffffffffffffffffffffffffffffffffffffffff166149889092919063ffffffff16565b905060008180602001905160208110156144c257600080fd5b8101908080519060200190929190505050905063150b7a0260e01b7bffffffffffffffffffffffffffffffffffffffffffffffffffffffff1916817bffffffffffffffffffffffffffffffffffffffffffffffffffffffff191614925050505b949350505050565b600073ffffffffffffffffffffffffffffffffffffffff168273ffffffffffffffffffffffffffffffffffffffff1614156145cd576040517f08c379a00000000000000000000000000000000000000000000000000000000081526004018080602001828103825260208152602001807f4552433732313a206d696e7420746f20746865207a65726f206164647265737381525060200191505060405180910390fd5b6145d681613844565b15614649576040517f08c379a000000000000000000000000000000000000000000000000000000000815260040180806020018281038252601c8152602001807f4552433732313a20746f6b656e20616c7265616479206d696e7465640000000081525060200191505060405180910390fd5b614655600083836149a0565b6146a681600160008573ffffffffffffffffffffffffffffffffffffffff1673ffffffffffffffffffffffffffffffffffffffff1681526020019081526020016000206140f690919063ffffffff16565b506146bd818360026141109092919063ffffffff16565b50808273ffffffffffffffffffffffffffffffffffffffff16600073ffffffffffffffffffffffffffffffffffffffff167fddf252ad1be2c89b69c2b068fc378daa952ba7f163c4a11628f55a4df523b3ef60405160405180910390a45050565b600080836001016000848152602001908152602001600020541415905092915050565b6000808360010160008481526020019081526020016000205490506000811461481d576000600182039050600060018660000180549050039050600086600001828154811061478c57fe5b90600052602060002001549050808760000184815481106147a957fe5b90600052602060002001819055506001830187600101600083815260200190815260200160002081905550866000018054806147e157fe5b60019003818190600052602060002001600090559055866001016000878152602001908152602001600020600090556001945050505050614823565b60009150505b92915050565b600061483583836149a5565b61488e578260000182908060018154018082558091505060019003906000526020600020016000909190919091505582600001805490508360010160008481526020019081526020016000208190555060019050614893565b600090505b92915050565b60008084600101600085815260200190815260200160002054905060008114156149405784600001604051806040016040528086815260200185815250908060018154018082558091505060019003906000526020600020906002020160009091909190915060008201518160000155602082015181600101555050846000018054905085600101600086815260200190815260200160002081905550600191505061496e565b8285600001600183038154811061495357fe5b90600052602060002090600202016001018190555060009150505b9392505050565b600080823b905060008111915050919050565b606061499784846000856149c8565b90509392505050565b505050565b600080836001016000848152602001908152602001600020541415905092915050565b606082471015614a23576040517f08c379a0000000000000000000000000000000000000000000000000000000008152600401808060200182810382526026815260200180614d816026913960400191505060405180910390fd5b614a2c85614975565b614a9e576040517f08c379a000000000000000000000000000000000000000000000000000000000815260040180806020018281038252601d8152602001807f416464726573733a2063616c6c20746f206e6f6e2d636f6e747261637400000081525060200191505060405180910390fd5b600060608673ffffffffffffffffffffffffffffffffffffffff1685876040518082805190602001908083835b60208310614aee5780518252602082019150602081019050602083039250614acb565b6001836020036101000a03801982511681845116808217855250505050505090500191505060006040518083038185875af1925050503d8060008114614b50576040519150601f19603f3d011682016040523d82523d6000602084013e614b55565b606091505b5091509150614b65828286614b71565b92505050949350505050565b60608315614b8157829050614c36565b600083511115614b945782518084602001fd5b816040517f08c379a00000000000000000000000000000000000000000000000000000000081526004018080602001828103825283818151815260200191508051906020019080838360005b83811015614bfb578082015181840152602081019050614be0565b50505050905090810190601f168015614c285780820380516001836020036101000a031916815260200191505b509250505060405180910390fd5b9392505050565b828054600181600116156101000203166002900490600052602060002090601f016020900481019282601f10614c7e57805160ff1916838001178555614cac565b82800160010185558215614cac579182015b82811115614cab578251825591602001919060010190614c90565b5b509050614cb99190614cbd565b5090565b614cdf91905b80821115614cdb576000816000905550600101614cc3565b5090565b9056fe456e756d657261626c655365743a20696e646578206f7574206f6620626f756e64734552433732313a207472616e7366657220746f206e6f6e20455243373231526563656976657220696d706c656d656e7465724f776e61626c653a206e6577206f776e657220697320746865207a65726f20616464726573734552433732313a207472616e7366657220746f20746865207a65726f2061646472657373416464726573733a20696e73756666696369656e742062616c616e636520666f722063616c6c4552433732313a206f70657261746f7220717565727920666f72206e6f6e6578697374656e7420746f6b656e4552433732313a20617070726f76652063616c6c6572206973206e6f74206f776e6572206e6f7220617070726f76656420666f7220616c6c4552433732313a2062616c616e636520717565727920666f7220746865207a65726f20616464726573734552433732313a206f776e657220717565727920666f72206e6f6e6578697374656e7420746f6b656e456e756d657261626c654d61703a20696e646578206f7574206f6620626f756e64734552433732313a20617070726f76656420717565727920666f72206e6f6e6578697374656e7420746f6b656e4552433732314d657461646174613a2055524920736574206f66206e6f6e6578697374656e7420746f6b656e4552433732313a207472616e73666572206f6620746f6b656e2074686174206973206e6f74206f776e4552433732314d657461646174613a2055524920717565727920666f72206e6f6e6578697374656e7420746f6b656e4552433732313a20617070726f76616c20746f2063757272656e74206f776e65724552433732313a207472616e736665722063616c6c6572206973206e6f74206f776e6572206e6f7220617070726f766564a2646970667358221220a1857fba213ccd85d4811086cd499d572f4d05454aded9c867ba86d52d3a612764736f6c634300060200334f776e61626c653a206e6577206f776e657220697320746865207a65726f2061646472657373456e756d657261626c655365743a20696e646578206f7574206f6620626f756e6473a2646970667358221220faa9db5fc02a6bc821c09853a141bf9794cb51c3f2ce9abe4689d4ad2d10e90a64736f6c63430006020033",
  "source": "pragma solidity  >=  0.4.25;\n\nimport \"@openzeppelin/contracts/token/ERC721/ERC721.sol\";\nimport \"@openzeppelin/contracts/access/Ownable.sol\";\nimport \"@openzeppelin/contracts/utils/EnumerableSet.sol\";\nimport \"NFTcryptTools.sol\";\n\n/// @title NFTcrypt - non-transferable ERC721 with secret content\n/// @author Martin Strobl\n/// @notice The contract is a factory for (non-transferable) ERC721 NFC standard (Child contracts) with additional E2E secret handling functions\ncontract NFTcrypt {\n  using EnumerableSet for EnumerableSet.AddressSet;\n\n\n    /// mapping from deployer to deployed adresses\n    mapping (address => EnumerableSet.AddressSet) private _deployedSet;\n    /// mapping for a simple list of child contracts\n    mapping (uint256 => address) public deployed;\n\n    /// tracking the number fo deployed children\n    uint256 public lastChildId = 0;\n\n    /// @notice Deploy a Child ERC721 contract\n    /// @dev The contract has to be payable despite no need for that\n    /// @param name name of the ERC721 contract (e.g. Cryptokitties)\n    /// @param abb Abbreviation of the contract name (e.g. CK)\n    function createChild(string memory name, string memory abb) public payable {\n        address issueContract = address((new Child).value(msg.value)(name, abb, msg.sender));\n        _deployedSet[msg.sender].add(issueContract);\n        deployed[lastChildId+1] = issueContract;\n        lastChildId++;\n    }\n\n    /// @notice Return a list of deployed contracts\n    /// @dev The at() approach may be suboptimal\n    /// @param owner address of the owner whose contract we want to return\n    /// @param id position of the contract in the list of owner's contracts\n    /// @return address of a deployed Child contract\n    function deployedAddress(address owner, uint256 id) public view returns (address) {\n      return _deployedSet[owner].at(id);\n    }\n\n    /// @notice Return a deployed contracts by id\n    /// @param id position of the contract in the list of deployed contracts\n    /// @return address of a deployed Child contract\n    function getDeployed(uint256 id) public view returns (address) {\n      return deployed[id];\n    }\n\n\n}\n/// @title ERC721 implementation of NFTcrypt ERC721 tokens with ncrypted secret\n/// @author Martin Strobl\n/// @notice contract handles issuance of NFTs, their setup, sale, and secret transmission\n/// @notice transfers are disabled via\n/// @dev view functions and mappings are inherited from NFTcryptTools.sol\ncontract Child is ERC721,Ownable,NFTcryptTools {\n  /// @notice Sets up ERC721 naming and transfers contract ownership\n  /// @param name name of the ERC721 contract (passed from factory)\n  /// @param abb Abbreviation of the contract name (passed from factory)\n  /// @param newOwner Address of the owner (passed from factory)\n   constructor (string memory name, string memory abb, address newOwner) ERC721(name, abb) public payable {\n        transferOwnership(newOwner);\n   }\n   /// @notice Log for new issuance of tokens to a batch\n   /// @param numberOfNft Number of tokens issued\n   event LogNewToB(uint256 numberOfNft, uint256 batchId);\n   /// @notice Sets up ERC721 naming and transfers contract ownership\n   event LogBatchURI(uint256 batchId, string _tokenURI);\n   /// @notice Sets up ERC721 naming and transfers contract ownership\n   event LogSold(uint256 tokenId, uint256 price, address buyer);\n\n   /// @notice Mints new NFT tokens and adds to a batch\n   /// @dev _batchSet keeps track of tokens in a batch\n   /// @param number how many tokens to issue\n   /// @param batch to which batch should the tokens be assigned\n   function _issueNFT(uint256 number, uint256 batch) internal {\n     uint256 i =1;\n     while (i<= number) {\n       maxIndex++;\n       _mint(msg.sender,maxIndex);\n       _batchSet[batch].add(maxIndex);\n        i++;\n     }\n   }\n\n   /// @notice Handles issance of tokens to a new batch or to and existing batch\n   /// @dev could be split to 2 functions but this saves on the contract size, if higher batchId than the max batch (lastBatch), issued to a new batch with id lastBatch+1\n   /// @param numberOfNft number of tokens to be issued\n   /// @param batchId id of the batch I want the new tokens issue to\n   function NewToBatch(uint256 numberOfNft, uint256 batchId) onlyOwner public  {\n     if (lastBatch>=batchId) {\n       _issueNFT(numberOfNft,batchId);\n       batchMax[batchId] = batchMax[batchId] + numberOfNft;\n       emit LogNewToB(numberOfNft,batchId);\n     } else {\n     _issueNFT(numberOfNft,lastBatch+1);\n     lastBatch = lastBatch+1;\n     batchMax[lastBatch] = numberOfNft;\n     emit LogNewToB(numberOfNft,lastBatch);\n   }\n\n   }\n\n\n   /// @notice Sets token URI (metadata) for the whole batch\n   /// @param batchId the target batch\n   /// @param _tokenURI the metadata to assign\n   function setBatchTokenURI(uint256 batchId, string memory _tokenURI) onlyOwner public  {\n    require(lastBatch>=batchId);\n    uint256 _i = 0;\n    while (_i<batchMax[batchId]) {\n      _setTokenURI(_batchSet[batchId].at(_i), _tokenURI);\n      _i++;\n    }\n    emit LogBatchURI( batchId, _tokenURI);\n   }\n\n   /// @notice Issues a new batch and assigns URI (metadata)\n   /// @param numberOfNft number of tokens to issue\n   /// @param _tokenURI the metadata to assign\n   function newBatchWithURI(uint256 numberOfNft,string memory _tokenURI) onlyOwner public {\n     NewToBatch(numberOfNft,lastBatch+1);\n     setBatchTokenURI(lastBatch,_tokenURI);\n   }\n\n   /// @notice Sets token URI (metadata) for a token\n   /// @param tokenId the target token\n   /// @param _tokenURI the metadata to assign\n   function setTokenURI(uint256 tokenId, string memory _tokenURI) public tokenExists(tokenId) onlyOwner {\n     _setTokenURI(tokenId,_tokenURI);\n   }\n\n   /// @notice Saves encrypted secret (contract owner releases the secret encrypted with token holder's encr. key)\n   /// @dev checks that token exist, operation by batch is not possible, only for sold tokens\n   /// @param tokenId the token for secret assignment\n   /// @param secret the encrypted message I want to assign as a secret\n    function setEncSecret(uint256 tokenId, string memory secret) public tokenExists(tokenId) onlyOwner {\n      require(ownerOf(tokenId)!=msg.sender);\n     _encrSecret[tokenId] = secret;\n   }\n\n   /// @notice Saves hash of the decrypted secret for the whole batch\n   /// @dev for client-side verification of the secret\n   /// @param batchId target batch\n   /// @param hashed the hash of unencrypted secret\n    function setSecretHash(uint256 batchId, string memory hashed) public onlyOwner {\n     _secretHash[batchId] = hashed;\n   }\n\n   /// @notice Sets the token price for a token and puts it up for sale\n   /// @dev callable only by the owner of the contract and toke, i.e. a token can be sold only once\n   /// @param tokenId target token\n   /// @param price min sale price\n   function setPrice(uint256 tokenId, uint256 price) public tokenExists(tokenId) onlyOwner {\n     require(ownerOf(tokenId)==msg.sender);\n     _setPrice(tokenId,price);\n   }\n\n   /// @notice Sets the token price for the whole batch and puts it up for sale\n   /// @dev callable only by the owner of the contract and toke, i.e. a token can be sold only once\n   /// @param batchId target batch\n   /// @param price min sale price\n   function setBatchPrice(uint256 batchId, uint256 price) onlyOwner public  {\n    require(lastBatch>=batchId);\n    uint256 _i = 0;\n    while (_i<batchMax[batchId]) {\n      setPrice(_batchSet[batchId].at(_i), price);\n      _i++;\n    }\n   }\n\n   /// @notice Buy a token\n   /// @dev token has to be put up for sale and the amount must be more or equal than price\n   /// @param tokenId target token\n   function purchase(uint256 tokenId) public stopInEmergency tokenExists(tokenId) payable {\n     require(forSale[tokenId]==true && msg.value>=origPrice[tokenId]);\n     _transfer(owner(), msg.sender, tokenId);\n     forSale[tokenId]=false;\n     address payable seller = payable(owner());\n     seller.transfer(msg.value);\n     emit LogSold( tokenId,  msg.value, msg.sender);\n   }\n\n\n\n   function togglePause(bool change) public onlyOwner {\n          stopped = change;\n   }\n\n}\n",
  "sourcePath": "/Users/au642254/Disk Google/eth_ad/dev/nftcrypt/truffle_repo/nftcrypt/contracts-truffle/contracts/NFTcrypt.sol",
  "compiler": {
    "name": "solc",
    "version": "0.6.2+commit.bacdbe57.Emscripten.clang"
  },
  "schemaVersion": "3.1.0",
  "updatedAt": "2020-12-10T16:21:24.495Z",
  "networkType": "ethereum",
  "devdoc": {
    "author": "Martin Strobl",
    "methods": {
      "createChild(string,string)": {
        "details": "The contract has to be payable despite no need for that",
        "params": {
          "abb": "Abbreviation of the contract name (e.g. CK)",
          "name": "name of the ERC721 contract (e.g. Cryptokitties)"
        }
      },
      "deployedAddress(address,uint256)": {
        "details": "The at() approach may be suboptimal",
        "params": {
          "id": "position of the contract in the list of owner's contracts",
          "owner": "address of the owner whose contract we want to return"
        },
        "returns": {
          "_0": "address of a deployed Child contract"
        }
      },
      "getDeployed(uint256)": {
        "params": {
          "id": "position of the contract in the list of deployed contracts"
        },
        "returns": {
          "_0": "address of a deployed Child contract"
        }
      }
    },
    "title": "NFTcrypt - non-transferable ERC721 with secret content"
  },
  "userdoc": {
    "methods": {
      "createChild(string,string)": {
        "notice": "Deploy a Child ERC721 contract"
      },
      "deployedAddress(address,uint256)": {
        "notice": "Return a list of deployed contracts"
      },
      "getDeployed(uint256)": {
        "notice": "Return a deployed contracts by id"
      }
    },
    "notice": "The contract is a factory for (non-transferable) ERC721 NFC standard (Child contracts) with additional E2E secret handling functions"
  }
}