{
  "contractName": "SimpleSave",
  "abi": [
    {
      "anonymous": false,
      "inputs": [
        {
          "indexed": true,
          "internalType": "address",
          "name": "previousOwner",
          "type": "address"
        },
        {
          "indexed": true,
          "internalType": "address",
          "name": "newOwner",
          "type": "address"
        }
      ],
      "name": "OwnershipTransferred",
      "type": "event"
    },
    {
      "inputs": [],
      "name": "owner",
      "outputs": [
        {
          "internalType": "address",
          "name": "",
          "type": "address"
        }
      ],
      "stateMutability": "view",
      "type": "function",
      "constant": true
    },
    {
      "inputs": [],
      "name": "renounceOwnership",
      "outputs": [],
      "stateMutability": "nonpayable",
      "type": "function"
    },
    {
      "inputs": [
        {
          "internalType": "address",
          "name": "newOwner",
          "type": "address"
        }
      ],
      "name": "transferOwnership",
      "outputs": [],
      "stateMutability": "nonpayable",
      "type": "function"
    },
    {
      "inputs": [
        {
          "internalType": "string",
          "name": "encSecret",
          "type": "string"
        },
        {
          "internalType": "address",
          "name": "contractAdd",
          "type": "address"
        },
        {
          "internalType": "uint256",
          "name": "batchId",
          "type": "uint256"
        }
      ],
      "name": "setEncSecret",
      "outputs": [],
      "stateMutability": "nonpayable",
      "type": "function"
    },
    {
      "inputs": [
        {
          "internalType": "address",
          "name": "contractAdd",
          "type": "address"
        },
        {
          "internalType": "uint256",
          "name": "batchId",
          "type": "uint256"
        }
      ],
      "name": "getKey",
      "outputs": [
        {
          "internalType": "string",
          "name": "",
          "type": "string"
        }
      ],
      "stateMutability": "view",
      "type": "function",
      "constant": true
    },
    {
      "inputs": [],
      "name": "kill",
      "outputs": [],
      "stateMutability": "nonpayable",
      "type": "function"
    }
  ],
  "bytecode": "0x608060405260006100146100b760201b60201c565b9050806000806101000a81548173ffffffffffffffffffffffffffffffffffffffff021916908373ffffffffffffffffffffffffffffffffffffffff1602179055508073ffffffffffffffffffffffffffffffffffffffff16600073ffffffffffffffffffffffffffffffffffffffff167f8be0079c531659141344cd1fd0a4f28419497f9722a3daafe3b4186f6b6457e060405160405180910390a3506100bf565b600033905090565b610a02806100ce6000396000f3fe608060405234801561001057600080fd5b50600436106100625760003560e01c80633aa15c791461006757806341c0e1b51461014c578063715018a6146101565780638da5cb5b14610160578063a369f72e146101aa578063f2fde38b14610271575b600080fd5b61014a6004803603606081101561007d57600080fd5b810190808035906020019064010000000081111561009a57600080fd5b8201836020820111156100ac57600080fd5b803590602001918460018302840111640100000000831117156100ce57600080fd5b91908080601f016020809104026020016040519081016040528093929190818152602001838380828437600081840152601f19601f820116905080830192505050505050509192919290803573ffffffffffffffffffffffffffffffffffffffff169060200190929190803590602001909291905050506102b5565b005b610154610342565b005b61015e61042b565b005b6101686105b3565b604051808273ffffffffffffffffffffffffffffffffffffffff1673ffffffffffffffffffffffffffffffffffffffff16815260200191505060405180910390f35b6101f6600480360360408110156101c057600080fd5b81019080803573ffffffffffffffffffffffffffffffffffffffff169060200190929190803590602001909291905050506105dc565b6040518080602001828103825283818151815260200191508051906020019080838360005b8381101561023657808201518184015260208101905061021b565b50505050905090810190601f1680156102635780820380516001836020036101000a031916815260200191505b509250505060405180910390f35b6102b36004803603602081101561028757600080fd5b81019080803573ffffffffffffffffffffffffffffffffffffffff1690602001909291905050506106ec565b005b60008282604051602001808373ffffffffffffffffffffffffffffffffffffffff1673ffffffffffffffffffffffffffffffffffffffff168152602001828152602001925050506040516020818303038152906040528051906020012090508360016000838152602001908152602001600020908051906020019061033b929190610901565b5050505050565b61034a6108f9565b73ffffffffffffffffffffffffffffffffffffffff166000809054906101000a900473ffffffffffffffffffffffffffffffffffffffff1673ffffffffffffffffffffffffffffffffffffffff161461040b576040517f08c379a00000000000000000000000000000000000000000000000000000000081526004018080602001828103825260208152602001807f4f776e61626c653a2063616c6c6572206973206e6f7420746865206f776e657281525060200191505060405180910390fd5b6104136105b3565b73ffffffffffffffffffffffffffffffffffffffff16ff5b6104336108f9565b73ffffffffffffffffffffffffffffffffffffffff166000809054906101000a900473ffffffffffffffffffffffffffffffffffffffff1673ffffffffffffffffffffffffffffffffffffffff16146104f4576040517f08c379a00000000000000000000000000000000000000000000000000000000081526004018080602001828103825260208152602001807f4f776e61626c653a2063616c6c6572206973206e6f7420746865206f776e657281525060200191505060405180910390fd5b600073ffffffffffffffffffffffffffffffffffffffff166000809054906101000a900473ffffffffffffffffffffffffffffffffffffffff1673ffffffffffffffffffffffffffffffffffffffff167f8be0079c531659141344cd1fd0a4f28419497f9722a3daafe3b4186f6b6457e060405160405180910390a360008060006101000a81548173ffffffffffffffffffffffffffffffffffffffff021916908373ffffffffffffffffffffffffffffffffffffffff160217905550565b60008060009054906101000a900473ffffffffffffffffffffffffffffffffffffffff16905090565b6060600160008484604051602001808373ffffffffffffffffffffffffffffffffffffffff1673ffffffffffffffffffffffffffffffffffffffff168152602001828152602001925050506040516020818303038152906040528051906020012081526020019081526020016000208054600181600116156101000203166002900480601f0160208091040260200160405190810160405280929190818152602001828054600181600116156101000203166002900480156106df5780601f106106b4576101008083540402835291602001916106df565b820191906000526020600020905b8154815290600101906020018083116106c257829003601f168201915b5050505050905092915050565b6106f46108f9565b73ffffffffffffffffffffffffffffffffffffffff166000809054906101000a900473ffffffffffffffffffffffffffffffffffffffff1673ffffffffffffffffffffffffffffffffffffffff16146107b5576040517f08c379a00000000000000000000000000000000000000000000000000000000081526004018080602001828103825260208152602001807f4f776e61626c653a2063616c6c6572206973206e6f7420746865206f776e657281525060200191505060405180910390fd5b600073ffffffffffffffffffffffffffffffffffffffff168173ffffffffffffffffffffffffffffffffffffffff16141561083b576040517f08c379a00000000000000000000000000000000000000000000000000000000081526004018080602001828103825260268152602001806109a76026913960400191505060405180910390fd5b8073ffffffffffffffffffffffffffffffffffffffff166000809054906101000a900473ffffffffffffffffffffffffffffffffffffffff1673ffffffffffffffffffffffffffffffffffffffff167f8be0079c531659141344cd1fd0a4f28419497f9722a3daafe3b4186f6b6457e060405160405180910390a3806000806101000a81548173ffffffffffffffffffffffffffffffffffffffff021916908373ffffffffffffffffffffffffffffffffffffffff16021790555050565b600033905090565b828054600181600116156101000203166002900490600052602060002090601f016020900481019282601f1061094257805160ff1916838001178555610970565b82800160010185558215610970579182015b8281111561096f578251825591602001919060010190610954565b5b50905061097d9190610981565b5090565b6109a391905b8082111561099f576000816000905550600101610987565b5090565b9056fe4f776e61626c653a206e6577206f776e657220697320746865207a65726f2061646472657373a2646970667358221220ee9da10ce8f322770a2012ae379051e13584f5b70438046df02fb52c88eeeea064736f6c63430006020033",
  "source": "pragma solidity >= 0.5.0 < 0.7.0;\n\n\nimport \"@openzeppelin/contracts/access/Ownable.sol\";\n\n/// @title SimpleSave\n/// @author Martin Strobl\n/// @notice This contract stores encrypted secrets (by the NFRTcrypt ERC721 owner) for later retrieval and reencryption for buyers\n/// @dev this contract can be called by anyone and secret altered - a more sophisticated solution is required for prod.\ncontract SimpleSave is Ownable{\n\n  /// mapping from contract and batch to encryption key\n  mapping (bytes32 => string) private encOwnSecret;\n\n  /// @notice Saves user's encryption key to the registry\n  /// @dev keccak256 generates a unique key for the combination of contract and batch id\n  /// @param encSecret encryped secret\n  /// @param contractAdd address of the contract\n  /// @param batchId target batch\n  function setEncSecret(string memory encSecret, address contractAdd, uint256 batchId) public {\n      bytes32 identity = keccak256(abi.encode(contractAdd, batchId));\n      encOwnSecret[identity] = encSecret;\n  }\n\n  /// @notice Retrieves the encrypted secret for a given batch and contract\n  /// @param contractAdd target contract address\n  /// @param batchId target batch\n  /// @return encryption key as a string\n  function getKey(address contractAdd, uint256 batchId) public view returns (string memory) {\n      return encOwnSecret[keccak256(abi.encode(contractAdd, batchId))];\n  }\n\n  /// @notice Selfdestruct\n  /// @dev cast owner to address payable\n  function kill() public onlyOwner {\n         selfdestruct(address(uint160(owner())));\n  }\n\n}\n",
  "sourcePath": "/Users/au642254/Disk Google/eth_ad/dev/nftcrypt/truffle_repo/nftcrypt/nftcrypt-truffle-project/contracts/SimpleSave.sol",
  "compiler": {
    "name": "solc",
    "version": "0.6.2+commit.bacdbe57.Emscripten.clang"
  },
  "schemaVersion": "3.1.0",
  "updatedAt": "2020-12-18T09:55:49.135Z",
  "networkType": "ethereum",
  "devdoc": {
    "author": "Martin Strobl",
    "details": "this contract can be called by anyone and secret altered - a more sophisticated solution is required for prod.",
    "methods": {
      "getKey(address,uint256)": {
        "params": {
          "batchId": "target batch",
          "contractAdd": "target contract address"
        },
        "returns": {
          "_0": "encryption key as a string"
        }
      },
      "kill()": {
        "details": "cast owner to address payable"
      },
      "owner()": {
        "details": "Returns the address of the current owner."
      },
      "renounceOwnership()": {
        "details": "Leaves the contract without owner. It will not be possible to call `onlyOwner` functions anymore. Can only be called by the current owner.     * NOTE: Renouncing ownership will leave the contract without an owner, thereby removing any functionality that is only available to the owner."
      },
      "setEncSecret(string,address,uint256)": {
        "details": "keccak256 generates a unique key for the combination of contract and batch id",
        "params": {
          "batchId": "target batch",
          "contractAdd": "address of the contract",
          "encSecret": "encryped secret"
        }
      },
      "transferOwnership(address)": {
        "details": "Transfers ownership of the contract to a new account (`newOwner`). Can only be called by the current owner."
      }
    },
    "title": "SimpleSave"
  },
  "userdoc": {
    "methods": {
      "getKey(address,uint256)": {
        "notice": "Retrieves the encrypted secret for a given batch and contract"
      },
      "kill()": {
        "notice": "Selfdestruct"
      },
      "setEncSecret(string,address,uint256)": {
        "notice": "Saves user's encryption key to the registry"
      }
    },
    "notice": "This contract stores encrypted secrets (by the NFRTcrypt ERC721 owner) for later retrieval and reencryption for buyers"
  }
}